:020000040800F2
:10000000681800208D020008950200089702000879
:10001000990200089B0200089D02000800000000F1
:100020000000000000000000000000009F02000827
:10003000A102000800000000270200083D1300088C
:100040002D1400084F110008C513000849120008BC
:10005000B303000845120008A5030008A90300081F
:10006000AB030008AD030008AF030008A7020008B7
:10007000A7020008A7020008A7020008A7020008BC
:10008000A7020008A7020008A7020008A7020008AC
:10009000A7020008A7020008A7020008B103000891
:1000A000C7130008CD130008CB130008C9130008BC
:1000B000CF130008D1130008D3130008150500085A
:1000C0001305000819050008170500084D1200085F
:1000D0004F120008251400082714000829140008EE
:1000E000A7030008471200082B140008DB130008C0
:1000F000E1130008DF130008DD1300083F030008C8
:10010000B50300084B120008D5130008511200086F
:100110002114000823140008D7130008D91300087D
:100120009D0300089F030008A1030008A303000823
:1001300000F002F800F03AF80AA090E8000C8244BF
:100140008344AAF10107DA4501D100F02FF8AFF29C
:10015000090EBAE80F0013F0010F18BFFB1A43F0A5
:10016000010318471014000030140000103A24BF97
:1001700078C878C1FAD8520724BF30C830C144BF0C
:1001800004680C607047000000230024002500264E
:10019000103A28BF78C1FBD8520728BF30C148BFEA
:1001A0000B6070471FB51FBD10B510BD00F091F872
:1001B0001146FFF7F7FF01F03BF900F0AFF803B489
:1001C000FFF7F2FF03BC00F0B3F8000072B670470F
:1001D00062B67047EFF3108072B6704780F31088F4
:1001E00070470000EFF3108072B6704780F31088FC
:1001F000704724484FF0FF010170002080F3098808
:100200001D480121017020484FF08051016062B605
:10021000FEE71D484FF08051016070471A484FF0CB
:10022000805101607047EFF3098028B1203880E8E1
:10023000F00F12490968086000B50A4880475DF868
:1002400004EB0B480B490A7802700C480C490A6809
:100250000260106890E8F00F203080F309884EF0BB
:10026000040E7047A7090008490500083D0000205A
:100270003F00002040000020460000204C000020ED
:100280005400002022ED00E004ED00E00948804722
:1002900009480047FEE7FEE7FEE7FEE7FEE7FEE768
:1002A000FEE7FEE7FEE7FEE704480549054A064B80
:1002B0007047000065130008310100086812002033
:1002C00068180020681400206814002070477047E8
:1002D0007047754600F028F8AE460500694653465B
:1002E00020F00700854618B020B5FFF7DDFFBDE818
:1002F00020404FF000064FF000074FF000084FF08D
:10030000000B21F00701AC46ACE8C009ACE8C0091D
:10031000ACE8C009ACE8C0098D4670470446AFF3AD
:1003200000802046FFF74BFF004870470412002072
:1003300001491820ABBEFEE7260002007047704757
:100340007047000000B585B0032000218022074BD4
:10035000CDE90132CDE9031007200346044A00909D
:10036000044800F0DBF905B000BD0000980500204E
:1003700094070020E51300087047704700F010FC58
:1003800000F04EF9FFF7DEFF05E000230A221946D0
:10039000184600F045FBF8E7704770477047704714
:1003A0007047704770477047704770477047704795
:1003B000704770477047000008B50121242000F005
:1003C000C7FE0420ADF8000010208DF803000320C4
:1003D0008DF802006946054800F00CF84820ADF899
:1003E00000006946024800F005F808BD0008014019
:1003F000001401402DE9F0410246002500260020AE
:1004000000230024002791F803C00CF00F0591F899
:1004100003C00CF0100CBCF1000F03D091F802C027
:100420004CEA050591F800C0BCF1000F31D014680A
:1004300000202BE04FF0010C0CFA00F3B1F800C0E3
:100440000CEA03069E4220D183004FF00F0C0CFAF9
:1004500003F7BC4305FA03FC4CEA040491F803C01B
:10046000BCF1280F06D14FF0010C0CFA00FCC2F8C9
:1004700014C00AE091F803C0BCF1480F05D14FF059
:10048000010C0CFA00FCC2F810C0401C0828D1D3A3
:100490001460B1F800C0BCF1FF0F34DD54680020D7
:1004A0002EE000F1080C4FF0010808FA0CF3B1F847
:1004B00000C00CEA03069E4221D183004FF00F0CCE
:1004C0000CFA03F7BC4305FA03FC4CEA040491F868
:1004D00003C0BCF1280F05D100F1080C08FA0CF894
:1004E000C2F8148091F803C0BCF1480F07D100F1A5
:1004F000080C4FF0010808FA0CF8C2F81080401CF4
:100500000828CED35460BDE8F08141617047016195
:100510007047704770477047704710B500F011F88A
:1005200000F0BEFB00F0E6FB00F008FC00F090FBE2
:1005300000F068FB00F036FC00F05CFC00F002F814
:1005400010BD70477047000010B500241A480078AD
:10055000012830D1FFF746FE0446184800780028ED
:1005600004DD16480078401E1449087013480078CE
:10057000F0B913480078D8B900F0A8FC1148007809
:1005800011490978884213D010480E49097850F86B
:1005900021000F49086008460068406B401C09684C
:1005A00048630C480068401C0A490860FFF736FEA3
:1005B0002046FFF71BFE10BD460000203D00002036
:1005C0003E000020400000203F000020640D00207D
:1005D000540000202400002010B50B48007890B98A
:1005E00000F074FC09480078094908700948074977
:1005F000097850F821000849086008460068074952
:100600000860FFF7F6FD10BD460000204000002006
:100610003F000020640D0020540000204C0000200A
:1006200010B50024022000F0C3F9FFF7DBFD0446FB
:1006300000200B4908602046FFF7D8FD0A2000F093
:10064000B7F9FFF7CFFD0446054800680549086083
:100650000120054908702046FFF7C8FD10BD0000C5
:1006600048000020340000203C00002010B5044663
:100670002046FFF765FE10BD2DE9FE4F06460F46EA
:1006800090461C464FF00009FFF7ACFD814620481C
:100690000078002805DD4846FFF7A8FD3C20BDE8AE
:1006A000FE8F1C4850F8240060BB0120194941F816
:1006B00024004846FFF79AFD00234246394630465B
:1006C00000F024F982460020009001900346024683
:1006D00051460290204600F027FC054635B90E48E9
:1006E000007801280CD100F0B7FB09E0FFF77AFD94
:1006F00081460020074941F824004846FFF776FD6F
:100700002846CCE74846FFF771FD2820C7E70000E0
:100710003D000020640D0020460000202DE9F04F30
:1007200085B081468A4693461C46DDE90F78129DC6
:1007300000200390FFF756FD03902348007800281F
:1007400006DD0398FFF752FD3C2005B0BDE8F08FB1
:100750001E4850F8240088BB01201C4941F82400A1
:100760000398FFF743FD2A464146384600F0E2FC75
:100770002B465A465146484600F0C8F80490119856
:10078000CDE9008002953A4620460E9B049900F080
:10079000CBFB064636B90E48007801280CD100F094
:1007A0005BFB09E0FFF71EFD03900020074941F8BD
:1007B00024000398FFF71AFD3046C6E7FFE70398C9
:1007C000FFF714FD2820C0E73D000020640D002045
:1007D0004600002010B504462046FFF7CDFD10BDB1
:1007E00010B5FFF7CAFD10BD2DE9F0470646884653
:1007F00014464FF000091D480078002803DD122040
:100800002070BDE8F087FFF7EDFC8146FF2E03D195
:100810001748006890F82E60164850F826502DB9F9
:100820004846FFF7E3FC43202070EAE7012D05D19D
:100830004846FFF7DBFC43202070E2E7404600F02B
:1008400069FB07460F2F05DD4846FFF7CFFC412027
:100850002070D6E7414605F1480000F04DFB4846C0
:10086000FFF7C4FC0020207000BFCAE73D00002055
:100870004C000020640D002010B5FFF78DFD10BD69
:100880002DE9F04707460D464FF0000A002028608A
:100890006860FFF7A7FC8246FF2F03D11948006864
:1008A00090F82E70184850F827402CB95046FFF7A2
:1008B0009DFC4320BDE8F087012C04D15046FFF792
:1008C00095FC4320F6E7207C00F0010020B950465B
:1008D000FFF78CFC4520EDE70026D4F80C90D4F807
:1008E00008805046FFF782FC00E0761C58F8041B95
:1008F0000029FAD0B0002860A9EB060080006860EB
:100900000020D7E74C000020640D002070B504469D
:1009100010464FF080750560051F28462C606FF06B
:100920000106051F28462E604FF01236051F284687
:100930002E604FF00336051F28462E604FF002361A
:10094000051F28462E607610051F28462E60051FBD
:10095000284629604FF01136051F28462E604FF0BB
:100960001036051F28462E604FF00936051F284611
:100970002E604FF00836051F28462E604FF00736D0
:10098000051F28462E604FF00636051F28462E60AC
:100990004FF00536051F28462E604FF00436051F20
:1009A00028462E6070BD10B5FFF7F7FC10BD0000A3
:1009B00070B50546002616480078002800DD70BD99
:1009C000002D23DDFFF70EFC06461248006890F864
:1009D00030401148005D0F49096891F83110884393
:1009E0000D4908550846005D40B90A48006890F86E
:1009F00032100A48007888430849087005480068A2
:100A000045853046FFF7F2FB00F026FA00BFD6E737
:100A10003D0000204C00002042000020410000204A
:100A20002DE9F04706460F4690469946184800784B
:100A3000002802DD5520BDE8F08709F1050064219A
:100A400048434FF47A71B0FBF1F14FF461607043A9
:100A5000C7EB071200EB8200404400EBC00202EB40
:100A6000001001EB8004250CA4B22046FFF7A0FF84
:100A700009E04FF40040FFF79BFF4FF40040FFF701
:100A800097FF681E85B2002DF3DC0020D3E700003D
:100A90003D00002070B504460025FFF7A3FB054686
:100AA000024804602846FFF7A1FB70BD60000020EB
:100AB00070B5002600F072F8FFF794FB0646314847
:100AC0000068401C2F4908603046FFF78FFB2E4816
:100AD0000078012853D12D48007820B1012804D096
:100AE000022809D103E001250BE0002509E00125DA
:100AF00001202649087004E00125002023490870E0
:100B000000BF00BF05B970BD2148046833E0FFF79E
:100B100069FB0646608D50B3608D401E80B26085D3
:100B200028BB94F82C0000F0370040B114F82C0FCB
:100B300020F037002070012060702C3C02E0002083
:100B400084F82D0094F82C0000F0080078B93034B7
:100B5000A0781049097808430E49087020780E499A
:100B6000085C6178084314F830190B4A50546469E2
:100B70003046FFF73BFB94F82E001F28C7D100BF7B
:100B8000C1E7000060000020460000205C0000205B
:100B90005800002041000020420000207047000063
:100BA00070B586B001A800F0E3FA64210298B0FBAA
:100BB000F1F42146481EB0F1807F00D31BE0481EAF
:100BC0004FF0E022506150170F22002807DA130778
:100BD0001E0E0A4B00F00F052D1F5E5503E0130794
:100BE0001D0E074B1D5400BF00204FF0E022906106
:100BF0000720106100BF06B070BD000018ED00E0D6
:100C000000E400E070B58C210F4800F01BF90E4C99
:100C100004F11C0600250AE00020207066603F20D9
:100C2000A0720021E1721C341C36681C85B2042DB0
:100C3000F2DB0020207060603F20A0720021E17292
:100C400001480249086070BDD80800202C0000202F
:100C500030B54FF4A071104800F0F4F80E4B03F1DA
:100C6000200500240AE0002018705D603F20D87342
:100C70000021197420332035601C84B2092CF2DB6A
:100C80000020187058603F20D87300211974024862
:100C90000249086030BD00009807002028000020AD
:100CA00000200A4908600A4908700A4908700A4980
:100CB00008700A4908700A4908600A4908600A4928
:100CC00008600A4908600A490870704760000020FF
:100CD0003D0000203E00002047000020460000208C
:100CE00024000020480000203800002034000020AC
:100CF0003C00002000220B4B1A700B49002004E03E
:100D0000002201F8012B421CD0B20428F8DB00229B
:100D1000064B1A70064B1A70064B1A60064B1A6087
:100D20007047000041000020420000203F000020EA
:100D300040000020540000204C00002030B54FF44B
:100D40008461144800F07EF88021134800F07AF89E
:100D5000104B03F1580500240AE05D613F2083F841
:100D6000480000214920C15458335835601CC4B292
:100D70000B2CF2D3002058613F2083F8480000215B
:100D80004920C15400200549086002480449086010
:100D900030BD0000E40D0020640D0020580000204C
:100DA0005000002000B587B00320002180220A4BAC
:100DB000CDE90132CDE903104FF6FF701F23074A3A
:100DC00000900748FFF7AAFC06AA06A11F20FFF71C
:100DD0000BFD07B000BD0000640B0020600D00207B
:100DE0004510000875432F4F532D49492049646C25
:100DF0006500000000B587B00320002180220A4B67
:100E0000CDE90132CDE903104FF6FE701E23074AEB
:100E100000900748FFF782FC06AA06A11E20FFF7F4
:100E2000E3FC07B000BD000064090020600B002057
:100E30006910000875432F4F532D494920537461A1
:100E40007400000004E0002200F8012B4A1E91B259
:100E50000029F8DC7047000010B50024FFF7C2F944
:100E6000044613480078F0B912480078D8B900F069
:100E70002DF81148007811490978884213D010489C
:100E80000D49097850F821000E49086008460068AD
:100E9000406B401C096848630B480068401C0A49C5
:100EA0000860FFF7B6F92046FFF7A0F910BD000073
:100EB0003D0000203E000020400000203F000020B8
:100EC000640D002054000020240000200649074A39
:100ED0001278885C0649095C034A515C01EBC00149
:100EE000044A11707047000074140008410000208B
:100EF00042000020400000200246002005E011F8DA
:100F0000013B02F8013B431CD8B20B78002BF6D111
:100F1000137070470146002002E0491C421CD0B209
:100F20000A78002AF9D170472DE9F84F05460E4698
:100F300017469846DDE90BABDDF8289000200090BD
:100F4000FFF750F9009039480468002C69D054F834
:100F5000140F364908600098FFF748F944F8146CFC
:100F6000A576002020766076E08244F810AC44F844
:100F7000089C44F80C7C24F804BC24F8028CE0772C
:100F8000E8102077217F01208840A07705F0070036
:100F9000E076E17E0120884060770020A06020613B
:100FA000E0602062A0626062E06220633F2084F81B
:100FB0003400143C0021492001552046FFF756FB20
:100FC0002046FFF707FCFFF70DF90090184840F89E
:100FD00025401848006860610020A061154800683D
:100FE00010B1144800688461124804603034A0785D
:100FF0001149097808431049087020780F49085CA6
:101000006178084314F830190C4A50540C480078A1
:10101000401C0B4908700098FFF7E8F80020BDE875
:10102000F88F0098FFF7E2F84220F8E75000002020
:10103000640D0020580000204100002042000020E4
:1010400047000020002400BFFFF7CCF80446054805
:101050000068401C034908602046FFF7C7F8FFF707
:10106000BFFBF1E748000020002700BF02E014208A
:10107000FFF79EFC1B4800780028F8D01A4800684B
:101080006421B0FBF1F400BFFFF7ACF80746174846
:101090000068174908601548066800201349086071
:1010A0003846FFF7A3F86CB1B6FBF4F0C0F164006A
:1010B00045B2002D02DB0F4805700BE000200D4902
:1010C000087007E000200B49087007480068642199
:1010D000B0FBF1F4FFF7D0FB00F00EF80A20FFF7A9
:1010E00067FCD1E73C0000203400002048000020CD
:1010F00038000020300000207CB5002514E069464F
:101100002846FFF7BDFB064666B9094850F825405A
:1011100044B1012C06D0D4E9020100EB8100206427
:1011200001986064681CC5B21F2DE8DD7CBD00001D
:10113000640D002002F0010343B102F002032BB161
:1011400002E0491E002308C00029FAD17047704709
:1011500029B1064A92690243044B9A6104E0034AAA
:1011600092698243014B9A6170470000001002406F
:1011700030B500210022002400232D4D6D6805F0BC
:101180000C0121B1042905D0082923D105E0294DFE
:10119000056022E0274D05601FE0254D6D6805F4D0
:1011A0007012234D6D6805F48034022505EB9242E0
:1011B0001CB9214D554305600BE01D4D6D6805F4CC
:1011C00000351DB11C4D5543056002E0194D5543D6
:1011D000056002E0174D056000BF00BF144D6D684B
:1011E00005F0F0010909154D6B5C0568DD404560AF
:1011F0000F4D6D6805F4E061090A104D6B5C4568A0
:10120000DD4085600A4D6D6805F46051C90A0B4DDB
:101210006B5C4568DD40C560054D6D6805F4404177
:10122000890B074D6B5CC568B5FBF3F5056130BDF7
:101230000010024000127A0000093D006400002006
:1012400074000020704770477047704770477047C0
:10125000704710B500F002F810BD00000CB500207A
:10126000019000903348006840F4803031490860B4
:1012700000BF3048006800F4003000900198401C26
:101280000190009818B90198B0F5A06FF1D12948E4
:10129000006800F4003010B10120009001E000204F
:1012A00000900098012843D12348006840F01000C6
:1012B000214908600846006820F0030008600846DD
:1012C000006840F0020008601A4840681949486008
:1012D0000846406848600846406840F480604860BE
:1012E0000846406820F47C1048600846406840F496
:1012F000E81048600846006840F08070086000BF51
:101300000C48006800F000700028F9D009484068D7
:1013100020F00300074948600846406840F002009A
:10132000486000BF0348406800F00C000828F9D16D
:101330000CBD0000001002400020024010B5FEF776
:1013400051FF044606480078401C054908702046B5
:10135000FEF74CFFFFF7ACFBFFF7F6F810BD0000FF
:101360003D00002010B51348006840F0010011490D
:10137000086008464068104908400E494860084621
:1013800000680E4908400B4908600846006820F4D0
:10139000802008600846406820F4FE0048604FF452
:1013A0001F008860FFF755FF4FF000600449086098
:1013B00010BD0000001002400000FFF8FFFFF6FE25
:1013C00008ED00E0704770477047704770477047FE
:1013D0007047704770477047704770477047704755
:1013E0007047000017E004210B48FFF790F80B4806
:1013F000006883B2002211461046FFF711FB04215A
:101400000548FFF782F80548006883B200221146BC
:101410001046FFF705FBE6E7000801401800002032
:1014200070477047704770477047704770470000BB
:1014300010B5FEF7CBFEFFF770F8FFF793FFFEF74E
:10144000BBFF4FF47A70084908600223074A002165
:101450000748FFF711F904460020FFF71BFBFFF7D1
:10146000BBF8204610BD00001800002094050020A5
:101470007D030008000001000200010003000100DC
:10148000020001000400010002000100030001004D
:10149000020001000500010002000100030001003C
:1014A000020001000400010002000100030001002D
:1014B000020001000600010002000100030001001B
:1014C000020001000400010002000100030001000D
:1014D00002000100050001000200010003000100FC
:1014E00002000100040001000200010003000100ED
:1014F00002000100070001000200010003000100DA
:1015000002000100040001000200010003000100CC
:1015100002000100050001000200010003000100BB
:1015200002000100040001000200010003000100AC
:10153000020001000600010002000100030001009A
:10154000020001000400010002000100030001008C
:10155000020001000500010002000100030001007B
:10156000020001000400010002000100030001006C
:10157000020001009415000800000020780000001F
:101580006C0100080C16000878000020F01700001D
:1015900088010008000000000000000000000000BA
:1015A000000000000000000000000000000000003B
:1015B000000000000000000000000000000000002B
:1015C000000000000000000000000000000000001B
:1015D000000000000000000000000000000000000B
:1015E00000000000000000000000000000000000FB
:1015F00000000000000000000000000001020304E1
:0C160000010203040607080902040608A2
:0400000508000131BD
:00000001FF
