:020000040800F2
:1000000068160020490200084D0200084F0200084F
:1000100051020008530200085502000800000000C9
:10002000000000000000000000000000570200086F
:1000300059020008000000005B0200085D02000891
:10004000ED130008131100085913000815120008D9
:10005000A503000811120008970300089B0300087D
:100060009D0300089F030008A103000889030008FE
:100070008B0300088D0300088F030008910300081C
:100080009303000895030008EF020008E913000835
:10009000EB1300088503000887030008A30300088A
:1000A0005B130008611300085F1300085D1300086C
:1000B00063130008651300086713000805050008AE
:1000C00003050008090500080705000817120008C5
:1000D00019120008E1130008E3130008E5130008F3
:1000E0009903000813120008E713000800F002F853
:1000F00000F03AF80AA090E8000C82448344AAF188
:100100000107DA4501D100F02FF8AFF2090EBAE885
:100110000F0013F0010F18BFFB1A43F0010318473B
:100120001414000034140000103A24BF78C878C1B9
:10013000FAD8520724BF30C830C144BF04680C60ED
:10014000704700000023002400250026103A28BF35
:1001500078C1FBD8520728BF30C148BF0B60704739
:100160001FB51FBD10B510BD00F08BF81146FFF78D
:10017000F7FF01F03DF900F0A9F803B4FFF7F2FF33
:1001800003BC00F0ADF8000072B6704762B670476D
:10019000EFF3108072B6704780F31088704700004C
:1001A000EFF3108072B6704780F3108870472448D0
:1001B0004FF0FF010170002080F309881D480121E4
:1001C000017020484FF08051016062B6FEE71D4883
:1001D0004FF08051016070471A484FF08051016024
:1001E0007047EFF3098028B1203880E8F00F1249FA
:1001F0000968086000B50A4880475DF804EB0B48C1
:100200000B490A7802700C480C490A6802601068B1
:1002100090E8F00F203080F309884EF0040E70470C
:100220005B0A0008FD050008190000201B000020E3
:100230001C000020220000202800002030000020A8
:1002400022ED00E004ED00E008480047FEE7FEE78D
:10025000FEE7FEE7FEE7FEE7FEE7FEE7FEE7FEE776
:1002600003480449024A044B70470000ED000008AF
:10027000681400206816002068140020704770473A
:100280007047754600F028F8AE46050069465346AB
:1002900020F00700854618B020B5FFF7E1FFBDE864
:1002A00020404FF000064FF000074FF000084FF0DD
:1002B000000B21F00701AC46ACE8C009ACE8C0096E
:1002C000ACE8C009ACE8C0098D4670470446AFF3FE
:1002D00000802046FFF751FF0048704704140020BB
:1002E00001491820ABBEFEE72600020070477047A8
:1002F0007047000000B585B00320002180220E4B1E
:10030000CDE90132CDE90310072003460B4A0090E6
:100310000B4800F05DFA032000218022094BCDE953
:100320000132CDE9031008200346074A0090074830
:1003300000F04EFA05B000BD0410002000120020AD
:10034000691300080412002000140020A5130008FF
:100350007047704700F006FC00F0BCF9FFF7CAFFD9
:1003600005E000230A221946184600F0B3FBF8E71F
:100370007047704710B500F0DDFE00F015F800F092
:10038000C4F810BD7047704770477047704770479A
:1003900070477047704770477047704770477047A5
:1003A000704770477047000008B50121282000F011
:1003B000B1FE0420ADF8000010208DF803000320EA
:1003C0008DF802006946054800F00CF84820ADF8A9
:1003D00000006946024800F005F808BD0008014029
:1003E000001401402DE9F0410246002500260020BE
:1003F00000230024002791F803C00CF00F0591F8AA
:1004000003C00CF0100CBCF1000F03D091F802C037
:100410004CEA050591F800C0BCF1000F31D014681A
:1004200000202BE04FF0010C0CFA00F3B1F800C0F3
:100430000CEA03069E4220D183004FF00F0C0CFA09
:1004400003F7BC4305FA03FC4CEA040491F803C02B
:10045000BCF1280F06D14FF0010C0CFA00FCC2F8D9
:1004600014C00AE091F803C0BCF1480F05D14FF069
:10047000010C0CFA00FCC2F810C0401C0828D1D3B3
:100480001460B1F800C0BCF1FF0F34DD54680020E7
:100490002EE000F1080C4FF0010808FA0CF3B1F857
:1004A00000C00CEA03069E4221D183004FF00F0CDE
:1004B0000CFA03F7BC4305FA03FC4CEA040491F878
:1004C00003C0BCF1280F05D100F1080C08FA0CF8A4
:1004D000C2F8148091F803C0BCF1480F07D100F1B5
:1004E000080C4FF0010808FA0CF8C2F81080401C04
:1004F0000828CED35460BDE8F081416170470161A6
:100500007047704770477047704708B500214FF03B
:10051000006000F053F84FF4E06000F045F825204B
:100520008DF8000000208DF8020001208DF80300F6
:10053000684600F001F808BD70B5002100230F22C5
:10054000C47804B3154C246804F4E064C4F5E06492
:10055000210AC1F10403CA40447804FA03F1847803
:100560001440214309010E4C0678A155047804F08B
:100570001F050124AC4005786D11AD0005F1E025A3
:10058000C5F8004109E0047804F01F050124AC40DF
:10059000044D0678761145F8264070BD0CED00E05C
:1005A00000E400E080E100E002490143024A1160FA
:1005B000704700000000FA050CED00E0024A0A4016
:1005C0000243024B1A60704780FFFF1F08ED00E0F6
:1005D00010B500F011F800F045FB00F06DFB00F0E5
:1005E0008FFB00F017FB00F0EFFA00F0BDFB00F00E
:1005F000E3FB00F002F810BD7047704710B500240F
:100600001A480078012830D1FFF7CAFD044618487F
:100610000078002804DD16480078401E1449087050
:1006200013480078F0B913480078D8B900F030FCCE
:100630001148007811490978884213D010480E49B2
:10064000097850F821000F49086008460068406B9F
:10065000401C096848630C480068401C0A4908604F
:10066000FFF7BAFD2046FFF79FFD10BD22000020D6
:10067000190000201A0000201C0000201B00002090
:1006800044060020300000200000002010B50B4878
:10069000007890B900F0FCFB09480078094908701F
:1006A00009480749097850F82100084908600846B8
:1006B000006807490860FFF77AFD10BD220000209E
:1006C0001C0000201B0000204406002030000020F9
:1006D0002800002010B50024022000F0C3F9FFF725
:1006E0005FFD044600200B4908602046FFF75CFDD3
:1006F0000A2000F0B7F9FFF753FD044605480068EB
:10070000054908600120054908702046FFF74CFDA7
:1007100010BD000024000020100000201800002060
:1007200010B504462046FFF7E3FD10BD2DE9FE4F4E
:1007300006460F4690461C464FF00009FFF730FD75
:10074000814620480078002805DD4846FFF72CFD4B
:100750003C20BDE8FE8F1C4850F8240060BB0120FF
:10076000194941F824004846FFF71EFD0023424680
:100770003946304600F024F982460020009001906E
:100780000346024651460290204600F0AFFB054664
:1007900035B90E48007801280CD100F03FFB09E084
:1007A000FFF7FEFC81460020074941F82400484637
:1007B000FFF7FAFC2846CCE74846FFF7F5FC28206F
:1007C000C7E7000019000020440600202200002096
:1007D0002DE9F04F85B081468A4693461C46DDE9F7
:1007E0000F78129D00200390FFF7DAFC0390234856
:1007F0000078002806DD0398FFF7D6FC3C2005B002
:10080000BDE8F08F1E4850F8240088BB01201C4929
:1008100041F824000398FFF7C7FC2A4641463846B2
:1008200000F06AFC2B465A465146484600F0C8F88C
:1008300004901198CDE9008002953A4620460E9B1F
:10084000049900F053FB064636B90E48007801289B
:100850000CD100F0E3FA09E0FFF7A2FC03900020BE
:10086000074941F824000398FFF79EFC3046C6E78D
:10087000FFE70398FFF798FC2820C0E71900002045
:10088000440600202200002010B504462046FFF751
:100890005FFD10BD10B5FFF75CFD10BD2DE9F04701
:1008A0000646884614464FF000091D480078002887
:1008B00003DD12202070BDE8F087FFF771FC814650
:1008C000FF2E03D11748006890F82E60164850F8A4
:1008D00026502DB94846FFF767FC43202070EAE711
:1008E000012D05D14846FFF75FFC43202070E2E769
:1008F000404600F0F1FA07460F2F05DD4846FFF7A6
:1009000053FC41202070D6E7414605F1480000F035
:10091000D5FA4846FFF748FC0020207000BFCAE720
:1009200019000020280000204406002010B5FFF721
:100930001FFD10BD2DE9F04707460D464FF0000A98
:10094000002028606860FFF72BFC8246FF2F03D150
:100950001948006890F82E70184850F827402CB9B4
:100960005046FFF721FC4320BDE8F087012C04D15D
:100970005046FFF719FC4320F6E7207C00F0010009
:1009800020B95046FFF710FC4520EDE70026D4F8CB
:100990000C90D4F808805046FFF706FC00E0761C67
:1009A00058F8041B0029FAD0B0002860A9EB060013
:1009B000800068600020D7E728000020440600205F
:1009C00070B5044610464FF080750560051F284637
:1009D0002C606FF00106051F28462E604FF012367E
:1009E000051F28462E604FF00336051F28462E604F
:1009F0004FF00236051F28462E607610051F284648
:100A00002E60051F284629604FF01136051F284625
:100A10002E604FF01036051F28462E604FF0093625
:100A2000051F28462E604FF00836051F28462E6009
:100A30004FF00736051F28462E604FF00636051F7B
:100A400028462E604FF00536051F28462E604FF0D1
:100A50000436051F28462E6070BD10B5FFF789FCCF
:100A600010BD000070B50546002616480078002825
:100A700000DD70BD002D23DDFFF792FB0646124816
:100A8000006890F830401148005D0F49096891F8FE
:100A9000311088430D4908550846005D40B90A48A1
:100AA000006890F832100A480078884308490870B6
:100AB0000548006845853046FFF776FB00F0AEF943
:100AC00000BFD6E719000020280000201E000020EB
:100AD0001D0000202DE9F04706460F469046994636
:100AE00018480078002802DD5520BDE8F08709F19C
:100AF0000500642148434FF47A71B0FBF1F14FF4E3
:100B000061607043C7EB071200EB8200404400EBCA
:100B1000C00202EB001001EB8004250CA4B22046B9
:100B2000FFF7A0FF09E04FF40040FFF79BFF4FF4F1
:100B30000040FFF797FF681E85B2002DF3DC002010
:100B4000D3E700001900002070B504460025FFF728
:100B500027FB0546024804602846FFF725FB70BDC9
:100B60003C00002070B586B001A800F0E7FA6421CF
:100B70000298B0FBF1F42146B1F1807F00D31DE073
:100B800021F07F40401E4FF0E022506150170F22AD
:100B9000002807DA13071E0E094B00F00F052D1F62
:100BA0005E5503E013071D0E064B1D5400BF0020C9
:100BB0004FF0E02290610720106100BF06B070BDC9
:100BC00018ED00E000E400E070B58C210F4800F063
:100BD0001BF90E4C04F11C0600250AE000202070D1
:100BE00066603F20A0720021E1721C341C36681C34
:100BF00085B2042DF2DB0020207060603F20A072DF
:100C00000021E17201480249086070BDB80100206E
:100C10000800002030B54FF4A071104800F0F4F83F
:100C20000E4B03F1200500240AE0002018705D60DF
:100C30003F20D8730021197420332035601C84B202
:100C4000092CF2DB0020187058603F20D873002177
:100C5000197402480249086030BD00007800002085
:100C60000400002000200A4908600A4908700A4967
:100C700008700A4908700A4908700A4908600A4958
:100C800008600A4908600A4908600A490870704704
:100C90003C000020190000201A0000202300002042
:100CA000220000200000002024000020140000206A
:100CB000100000201800002000220B4B1A700B4976
:100CC000002004E0002201F8012B421CD0B20428CD
:100CD000F8DB0022064B1A70064B1A70064B1A609E
:100CE000064B1A60704700001D0000201E00002007
:100CF0001B0000201C0000203000002028000020E5
:100D000030B54FF48461144800F07EF88021134818
:100D100000F07AF8104B03F1580500240AE05D61F9
:100D20003F2083F8480000214920C15458335835EA
:100D3000601CC4B20B2CF2D3002058613F2083F812
:100D4000480000214920C15400200549086002489C
:100D50000449086030BD0000C4060020440600209D
:100D6000340000202C00002000B587B003200021B3
:100D700080220A4BCDE90132CDE903104FF6FF7016
:100D80001F23074A00900748FFF722FD06AA06A185
:100D90001F20FFF783FD07B000BD000044040020C2
:100DA000400600200910000875432F4F532D494974
:100DB0002049646C6500000000B587B00320002165
:100DC00080220A4BCDE90132CDE903104FF6FE70C7
:100DD0001E23074A00900748FFF7FAFC06AA06A15F
:100DE0001E20FFF75BFD07B000BD0000440200209D
:100DF000400400202D10000875432F4F532D494902
:100E0000205374617400000004E0002200F8012BFC
:100E10004A1E91B20029F8DC7047000010B500248A
:100E2000FFF7BEF9044613480078F0B9124800787D
:100E3000D8B900F02DF81148007811490978884296
:100E400013D010480D49097850F821000E49086068
:100E500008460068406B401C096848630B480068FE
:100E6000401C0A490860FFF7B2F92046FFF79CF9D9
:100E700010BD0000190000201A0000201C000020F6
:100E80001B0000204406002030000020000000204D
:100E90000649074A1278885C0649095C034A515C96
:100EA00001EBC001044A11707047000034140008BF
:100EB0001D0000201E0000201C0000200246002013
:100EC00005E011F8013B02F8013B431CD8B20B7856
:100ED000002BF6D1137070470146002002E0491C38
:100EE000421CD0B20A78002AF9D170472DE9F84F98
:100EF00005460E4617469846DDE90BABDDF828900F
:100F000000200090FFF74CF9009039480468002C4D
:100F100069D054F8140F364908600098FFF744F977
:100F200044F8146CA576002020766076E08244F8C0
:100F300010AC44F8089C44F80C7C24F804BC24F859
:100F4000028CE077E8102077217F01208840A0778D
:100F500005F00700E076E17E012088406077002000
:100F6000A0602061E0602062A0626062E0622063B5
:100F70003F2084F83400143C0021492001552046CC
:100F8000FFF7CEFB2046FFF77FFCFFF709F9009043
:100F9000184840F825401848006860610020A061AA
:100FA0001548006810B11448006884611248046054
:100FB0003034A07811490978084310490870207826
:100FC0000F49085C6178084314F830190C4A5054F2
:100FD0000C480078401C0B4908700098FFF7E4F8B3
:100FE0000020BDE8F88F0098FFF7DEF84220F8E710
:100FF0002C00002044060020340000201D000020AA
:101000001E00002023000020002400BFFFF7C8F8C6
:10101000044605480068401C034908602046FFF765
:10102000C3F8FFF737FCF1E724000020002700BFDA
:1010300002E01420FFF716FD1B4800780028F8D0C6
:101040001A4800686421B0FBF1F400BFFFF7A8F86C
:1010500007461748006817490860154806680020C9
:10106000134908603846FFF79FF86CB1B6FBF4F0FF
:10107000C0F1640045B2002D02DB0F4805700BE0A3
:1010800000200D49087007E000200B490870074850
:1010900000686421B0FBF1F4FFF748FC00F00EF8A3
:1010A0000A20FFF7DFFCD1E7180000201000002025
:1010B00024000020140000200C0000207CB5002536
:1010C00014E069462846FFF735FC064666B909482C
:1010D00050F8254044B1012C06D0D4E9020100EBC0
:1010E0008100206401986064681CC5B21F2DE8DD92
:1010F0007CBD00004406002002F0010343B102F071
:1011000002032BB102E0491E002308C00029FAD1D6
:101110007047704729B1064A92690243044B9A61AD
:1011200004E0034A92698243014B9A6170470000D0
:101130000010024010B500F0E7F810BD30B50021F6
:101140000022002400232D4D6D6805F00C0121B113
:10115000042905D0082923D105E0294D056022E0A6
:10116000274D05601FE0254D6D6805F47012234D75
:101170006D6805F48034022505EB92421CB9214DBF
:10118000554305600BE01D4D6D6805F400351DB13C
:101190001C4D5543056002E0194D5543056002E0C2
:1011A000174D056000BF00BF144D6D6805F0F001DC
:1011B0000909154D6B5C0568DD4045600F4D6D6894
:1011C00005F4E061090A104D6B5C4568DD408560FF
:1011D0000A4D6D6805F46051C90A0B4D6B5C45689A
:1011E000DD40C560054D6D6805F44041890B074D34
:1011F0006B5CC568B5FBF3F5056130BD00100240BE
:1012000000127A0000093D0040000020500000203C
:101210007047704770477047704710B500F002F88C
:1012200010BD00000CB5002001900090344800680B
:1012300040F480303249086000BF3148006800F453
:10124000003000900198401C0190009818B9019856
:10125000B0F5A06FF1D12A48006800F4003010B159
:101260000120009001E0002000900098012844D166
:101270002448006840F010002249086008460068D1
:1012800020F0030008600846006840F00200086093
:101290001B4840681A49486008464068486008464C
:1012A000406840F4806048600846406820F47C1044
:1012B00048600846406840F4E81048600846006806
:1012C00040F08070086000BF0D48006800F00070BA
:1012D0000028F9D00A48406820F003000849486017
:1012E0000846406840F00200486000BF044840687B
:1012F00000F00C000828F9D101E000BFFEE70CBDAA
:10130000001002400020024010B51048006840F074
:1013100001000E490860084640680D4908400B4925
:101320004860084600680B490840084908600846BC
:10133000006820F4802008600846406820F4FE0021
:10134000486000208860FFF768FF10BD0010024071
:101350000000FFF8FFFFF6FE7047704770477047C8
:10136000704770477047704717E004210B48FFF73C
:10137000C6F80B48006883B2002211461046FFF7FA
:10138000A9FB04210548FFF7B8F80548006883B2B7
:10139000002211461046FFF79DFBE6E700080140DA
:1013A0006C00002017E040210B48FFF7A8F80B481D
:1013B000006883B2002211461046FFF78BFB4021E4
:1013C0000548FFF79AF80548006883B200221146E5
:1013D0001046FFF77FFBE6E7001401407000002095
:1013E00070477047704770477047704770470000FC
:1013F00010B5FEF7C9FEFFF7EBF8FEF7BBFFC820FC
:1014000008490860084908600223084A0021084882
:10141000FFF78CF904460020FFF796FBFFF736F93B
:10142000204610BD6C00002070000020001000203D
:101430005503000800000100020001000300010044
:10144000020001000400010002000100030001008D
:10145000020001000500010002000100030001007C
:10146000020001000400010002000100030001006D
:10147000020001000600010002000100030001005B
:10148000020001000400010002000100030001004D
:10149000020001000500010002000100030001003C
:1014A000020001000400010002000100030001002D
:1014B000020001000700010002000100030001001A
:1014C000020001000400010002000100030001000D
:1014D00002000100050001000200010003000100FC
:1014E00002000100040001000200010003000100ED
:1014F00002000100060001000200010003000100DB
:1015000002000100040001000200010003000100CC
:1015100002000100050001000200010003000100BB
:1015200002000100040001000200010003000100AC
:10153000020001005415000800000020780000009F
:1015400028010008CC15000878000020F0150000E4
:10155000440100080000000000000000000000003E
:10156000000000000000000000000000000000007B
:10157000000000000000000000000000000000006B
:10158000000000000000000000000000000000005B
:101590000000000000000000010203040102030437
:1015A0000607080902040608000000000000000009
:1015B000000000000000000000000000000000002B
:0C15C0000000000000000000000000001F
:04000005080000ED02
:00000001FF
