:020000040800F2
:10000000501A00200101000805010008070100083E
:10001000090100080B0100080D01000800000000A4
:1000200000000000000000000000000011010008B6
:100030000F010008000000000F020008BD110008B9
:100040008D120008A310000835120008C91000081E
:100050007D030008C51000086F0300087303000843
:10006000750300087703000879030008610300089E
:1000700063030008650300086703000869030008BC
:100080006B0300086D0300080303000889120008D1
:100090008B1200085D0300085F0300087B03000863
:1000A000371200083D1200083B1200083912000800
:1000B0003F1200084112000843120008CD04000856
:1000C000CB040008D1040008CF040008CB100008BE
:1000D000CD10000881120008831200088512000864
:1000E00071030008C7100008871200080000000014
:1000F0000000000000000000000000000000000000
:1001000004480047FEE7FEE7FEE7FEE7FEE7FEE7FE
:10011000FEE700001901000800F002F800F03AF8CC
:100120000AA090E8000C82448344AAF10107DA4552
:1001300001D100F02FF8AFF2090EBAE80F0013F06A
:10014000010F18BFFB1A43F0010318478C1200007F
:10015000AC120000103A24BF78C878C1FAD8520710
:1001600024BF30C830C144BF04680C607047000031
:100170000023002400250026103A28BF78C1FBD8B0
:10018000520728BF30C148BF0B6070471FB51FBD65
:1001900010B510BD00F07FF81146FFF7F7FF01F032
:1001A00077F800F09DF803B4FFF7F2FF03BC00F00E
:1001B000A1F8000072B6704762B67047EFF3108086
:1001C00072B6704780F3108870470000EFF310801C
:1001D00072B6704780F31088704724484FF0FF01D3
:1001E0000170002080F309881D480121017020481A
:1001F0004FF08051016062B6FEE71D484FF080511C
:10020000016070471A484FF0805101607047EFF36A
:10021000098028B1203880E8F00F12490968086089
:1002200000B50A4880475DF804EB0B480B490A7893
:1002300002700C480C490A680260106890E8F00FE0
:10024000203080F309884EF0040E70475F090008E3
:1002500001050008190000201B0000201C000020E0
:1002600022000020280000203000002022ED00E0C5
:1002700004ED00E002480349034A044B70470000C4
:1002800050120020501A0020501600205016002056
:10029000704770477047754600F028F8AE46050075
:1002A0006946534620F00700854618B020B5FFF791
:1002B000E1FFBDE820404FF000064FF000074FF08F
:1002C00000084FF0000B21F00701AC46ACE8C00974
:1002D000ACE8C009ACE8C009ACE8C0098D4670477D
:1002E0000446AFF300802046FFF75DFF00487047EB
:1002F000F011002001491820ABBEFEE726000200E5
:10030000704770477047000000B585B0032000219A
:100310008022074BCDE90132CDE9031007200346C7
:10032000044A0090044800F0D5F905B000BD000073
:10033000F00F0020EC1100204512000870477047B4
:1003400000F04AF9FFF7E0FF05E000230A22194612
:10035000184600F041FBF8E7704770477047704758
:1003600070477047704770477047704770477047D5
:10037000704770477047704770477047704700007C
:1003800008B50121242000F08DFE0420ADF8000006
:1003900010208DF8030003208DF802006946024802
:1003A00000F004F808BD0000000801402DE9F0410C
:1003B000024600250026002000230024002791F893
:1003C00003C00CF00F0591F803C00CF0100CBCF149
:1003D000000F03D091F802C04CEA050591F800C067
:1003E000BCF1000F31D0146800202BE04FF0010C5D
:1003F0000CFA00F3B1F800C00CEA03069E4220D1CB
:1004000083004FF00F0C0CFA03F7BC4305FA03FC12
:100410004CEA040491F803C0BCF1280F06D14FF058
:10042000010C0CFA00FCC2F814C00AE091F803C0F9
:10043000BCF1480F05D14FF0010C0CFA00FCC2F8DA
:1004400010C0401C0828D1D31460B1F800C0BCF122
:10045000FF0F34DD546800202EE000F1080C4FF04F
:10046000010808FA0CF3B1F800C00CEA03069E423A
:1004700021D183004FF00F0C0CFA03F7BC4305FAAF
:1004800003FC4CEA040491F803C0BCF1280F05D129
:1004900000F1080C08FA0CF8C2F8148091F803C0B7
:1004A000BCF1480F07D100F1080C4FF0010808FA21
:1004B0000CF8C2F81080401C0828CED35460BDE868
:1004C000F081416170470161704770477047704724
:1004D000704710B500F011F800F08CFB00F0B4FB91
:1004E00000F0D6FB00F05EFB00F036FB00F004FCF1
:1004F00000F02AFC00F002F810BD704770470000C1
:1005000010B500241A480078012830D1FFF75EFEAC
:10051000044618480078002804DD16480078401E7C
:100520001449087013480078F0B913480078D8B916
:1005300000F076FC1148007811490978884213D000
:1005400010480E49097850F821000F490860084604
:100550000068406B401C096848630C480068401CF8
:100560000A490860FFF74EFE2046FFF733FE10BD34
:1005700022000020190000201A0000201C0000208A
:100580001B0000203006002030000020000000206A
:1005900010B50B48007890B900F042FC094800788B
:1005A0000949087009480749097850F821000849A5
:1005B00008600846006807490860FFF70EFE10BD96
:1005C000220000201C0000201B000020300600201C
:1005D000300000202800002010B50024022000F088
:1005E000C3F9FFF7F3FD044600200B4908602046DD
:1005F000FFF7F0FD0A2000F0B7F9FFF7E7FD04462A
:100600000548006805490860012005490870204632
:10061000FFF7E0FD10BD00002400002010000020C6
:100620001800002010B504462046FFF76BFE10BDF1
:100630002DE9FE4F06460F4690461C464FF0000936
:10064000FFF7C4FD814620480078002805DD4846B4
:10065000FFF7C0FD3C20BDE8FE8F1C4850F8240089
:1006600060BB0120194941F824004846FFF7B2FD5C
:10067000002342463946304600F024F982460020E5
:10068000009001900346024651460290204600F039
:10069000F5FB054635B90E48007801280CD100F06D
:1006A00085FB09E0FFF792FD81460020074941F8EC
:1006B00024004846FFF78EFD2846CCE74846FFF762
:1006C00089FD2820C7E7000019000020300600201F
:1006D000220000202DE9F04F85B081468A469346DE
:1006E0001C46DDE90F78129D00200390FFF76EFD98
:1006F000039023480078002806DD0398FFF76AFD81
:100700003C2005B0BDE8F08F1E4850F8240088BB9F
:1007100001201C4941F824000398FFF75BFD2A469D
:100720004146384600F0B0FC2B465A4651464846F2
:1007300000F0C8F804901198CDE9008002953A467F
:1007400020460E9B049900F099FB064636B90E48E8
:10075000007801280CD100F029FB09E0FFF736FDF5
:1007600003900020074941F824000398FFF732FD69
:100770003046C6E7FFE70398FFF72CFD2820C0E7C7
:1007800019000020300600202200002010B5044689
:100790002046FFF7D3FD10BD10B5FFF7D0FD10BD0B
:1007A0002DE9F0470646884614464FF000091D48DB
:1007B0000078002803DD12202070BDE8F087FFF7E5
:1007C00005FD8146FF2E03D11748006890F82E6082
:1007D000164850F826502DB94846FFF7FBFC432039
:1007E0002070EAE7012D05D14846FFF7F3FC4320CE
:1007F0002070E2E7404600F037FB07460F2F05DD8B
:100800004846FFF7E7FC41202070D6E7414605F156
:10081000480000F01BFB4846FFF7DCFC002020707E
:1008200000BFCAE719000020280000203006002081
:1008300010B5FFF791FD10BD2DE9F04707460D46B5
:100840004FF0000A002028606860FFF7BFFC824676
:10085000FF2F03D11948006890F82E70184850F8FF
:1008600027402CB95046FFF7B5FC4320BDE8F08780
:10087000012C04D15046FFF7ADFC4320F6E7207C65
:1008800000F0010020B95046FFF7A4FC4520EDE739
:100890000026D4F80C90D4F808805046FFF79AFC54
:1008A00000E0761C58F8041B0029FAD0B00028603C
:1008B000A9EB0600800068600020D7E72800002030
:1008C0003006002070B5044610464FF08075056074
:1008D000051F28462C606FF00106051F28462E6074
:1008E0004FF01236051F28462E604FF00336051FC5
:1008F00028462E604FF00236051F28462E607610DF
:10090000051F28462E60051F284629604FF0113626
:10091000051F28462E604FF01036051F28462E6012
:100920004FF00936051F28462E604FF00836051F88
:1009300028462E604FF00736051F28462E604FF0E0
:100940000636051F28462E604FF00536051F28463F
:100950002E604FF00436051F28462E6070BD10B57E
:10096000FFF7FBFC10BD000070B5054600261648D9
:100970000078002800DD70BD002D23DDFFF726FC88
:1009800006461248006890F830401148005D0F4953
:10099000096891F8311088430D4908550846005DF3
:1009A00040B90A48006890F832100A480078884335
:1009B000084908700548006845853046FFF70AFC7D
:1009C00000F0F4F900BFD6E719000020280000204D
:1009D0001E0000201D0000202DE9F04706460F46AE
:1009E0009046994618480078002802DD5520BDE859
:1009F000F08709F10500642148434FF47A71B0FB98
:100A0000F1F14FF461607043C7EB071200EB820015
:100A1000404400EBC00202EB001001EB8004250C07
:100A2000A4B22046FFF7A0FF09E04FF40040FFF713
:100A30009BFF4FF40040FFF797FF681E85B2002D23
:100A4000F3DC0020D3E700001900002070B5044655
:100A50000025FFF7BBFB0546024804602846FFF768
:100A6000B9FB70BD3C00002070B5002600F072F8A4
:100A7000FFF7ACFB064631480068401C2F49086070
:100A80003046FFF7A7FB2E480078012853D12D48A8
:100A9000007820B1012804D0022809D103E0012503
:100AA0000BE0002509E0012501202649087004E03B
:100AB000012500202349087000BF00BF05B970BDA3
:100AC0002148046833E0FFF781FB0646608D50B390
:100AD000608D401E80B2608528BB94F82C0000F029
:100AE000370040B114F82C0F20F03700207001209F
:100AF00060702C3C02E0002084F82D0094F82C005B
:100B000000F0080078B93034A0781049097808431B
:100B10000E49087020780E49085C6178084314F883
:100B200030190B4A505464693046FFF753FB94F870
:100B30002E001F28C7D100BFC1E700003C000020E5
:100B40002200002038000020340000201D0000207A
:100B50001E0000207047000070B58C210F4800F087
:100B60001BF90E4C04F11C0600250AE00020207041
:100B700066603F20A0720021E1721C341C36681CA4
:100B800085B2042DF2DB0020207060603F20A0724F
:100B90000021E17201480249086070BDA4010020F3
:100BA0000800002030B54FF4A071104800F0F4F8B0
:100BB0000E4B03F1200500240AE0002018705D6050
:100BC0003F20D8730021197420332035601C84B273
:100BD000092CF2DB0020187058603F20D8730021E8
:100BE000197402480249086030BD0000640000200A
:100BF0000400002000200A4908600A4908700A49D8
:100C000008700A4908700A4908700A4908600A49C8
:100C100008600A4908600A4908600A490870704774
:100C20003C000020190000201A00002023000020B2
:100C300022000020000000202400002014000020DA
:100C4000100000201800002000220B4B1A700B49E6
:100C5000002004E0002201F8012B421CD0B204283D
:100C6000F8DB0022064B1A70064B1A70064B1A600E
:100C7000064B1A60704700001D0000201E00002077
:100C80001B0000201C000020300000202800002055
:100C900030B54FF48461144800F07EF88021134889
:100CA00000F07AF8104B03F1580500240AE05D616A
:100CB0003F2083F8480000214920C154583358355B
:100CC000601CC4B20B2CF2D3002058613F2083F883
:100CD000480000214920C15400200549086002480D
:100CE0000449086030BD0000B00600203006002036
:100CF000340000202C00002000B587B00320002124
:100D000080220A4BCDE90132CDE903104FF6FF7086
:100D10001F23074A00900748FFF7DCFC06AA06A13C
:100D20001F20FFF73DFD07B000BD0000300400208C
:100D30002C060020990F000875432F4F532D494969
:100D40002049646C6500000000B587B003200021D5
:100D500080220A4BCDE90132CDE903104FF6FE7037
:100D60001E23074A00900748FFF7B4FC06AA06A115
:100D70001E20FFF715FD07B000BD00003002002067
:100D80002C040020BD0F000875432F4F532D4949F7
:100D9000205374617400000004E0002200F8012B6D
:100DA0004A1E91B20029F8DC7047000010B50024FB
:100DB000FFF70CFA044613480078F0B9124800789F
:100DC000D8B900F02DF81148007811490978884207
:100DD00013D010480D49097850F821000E490860D9
:100DE00008460068406B401C096848630B4800686F
:100DF000401C0A490860FFF700FA2046FFF7EAF9AD
:100E000010BD0000190000201A0000201C00002066
:100E10001B000020300600203000002000000020D1
:100E20000649074A1278885C0649095C034A515C06
:100E300001EBC001044A117070470000D81200088D
:100E40001D0000201E0000201C0000200246002083
:100E500005E011F8013B02F8013B431CD8B20B78C6
:100E6000002BF6D1137070470146002002E0491CA8
:100E7000421CD0B20A78002AF9D170472DE9F84F08
:100E800005460E4617469846DDE90BABDDF828907F
:100E900000200090FFF79AF9009039480468002C70
:100EA00069D054F8140F364908600098FFF792F99A
:100EB00044F8146CA576002020766076E08244F831
:100EC00010AC44F8089C44F80C7C24F804BC24F8CA
:100ED000028CE077E8102077217F01208840A077FE
:100EE00005F00700E076E17E012088406077002071
:100EF000A0602061E0602062A0626062E062206326
:100F00003F2084F83400143C00214920015520463C
:100F1000FFF788FB2046FFF739FCFFF757F90090F1
:100F2000184840F825401848006860610020A0611A
:100F30001548006810B114480068846112480460C4
:100F40003034A07811490978084310490870207896
:100F50000F49085C6178084314F830190C4A505462
:100F60000C480078401C0B4908700098FFF732F9D4
:100F70000020BDE8F88F0098FFF72CF94220F8E731
:100F80002C00002030060020340000201D0000202E
:100F90001E00002023000020002400BFFFF716F9E8
:100FA000044605480068401C034908602046FFF7D6
:100FB00011F9FFF7F1FBF1E724000020002700BF43
:100FC00002E01420FFF7D0FC1B4800780028F8D07E
:100FD0001A4800686421B0FBF1F400BFFFF7F6F88F
:100FE000074617480068174908601548066800203A
:100FF000134908603846FFF7EDF86CB1B6FBF4F022
:10100000C0F1640045B2002D02DB0F4805700BE013
:1010100000200D49087007E000200B4908700748C0
:1010200000686421B0FBF1F4FFF702FC00F00EF859
:101030000A20FFF799FCD1E71800002010000020DB
:1010400024000020140000200C0000207CB50025A6
:1010500014E069462846FFF7EFFB064666B90948E3
:1010600050F8254044B1012C06D0D4E9020100EB30
:101070008100206401986064681CC5B21F2DE8DD02
:101080007CBD00003006002002F0010343B102F0F5
:1010900002032BB102E0491E002308C00029FAD147
:1010A0007047704729B1064A92690243044B9A611E
:1010B00004E0034A92698243014B9A617047000041
:1010C000001002407047704770477047704710B576
:1010D00000F002F810BD00000CB500200190009057
:1010E0003448006840F480303249086000BF31481D
:1010F000006800F4003000900198401C01900098B6
:1011000018B90198B0F5A06FF1D12A48006800F431
:10111000003010B10120009001E000200090009804
:10112000012844D12448006840F01000224908609A
:101130000846006820F0030008600846006840F098
:10114000020008601B4840681A4948600846406829
:1011500048600846406840F480604860084640683F
:1011600020F47C1048600846406840F4E81048606D
:101170000846006840F08070086000BF0D480068B5
:1011800000F000700028F9D00A48406820F0030001
:10119000084948600846406840F00200486000BFC7
:1011A0000448406800F00C000828F9D101E000BFB5
:1011B000FEE70CBD001002400020024010B5FFF712
:1011C00005F8044606480078401C0549087020468A
:1011D000FFF700F8FFF748FCFFF792F910BD000099
:1011E0001900002010B51048006840F001000E49B9
:1011F0000860084640680D4908400B4948600846A9
:1012000000680B490840084908600846006820F457
:10121000802008600846406820F4FE0048600020F6
:101220008860FFF754FF10BD001002400000FFF877
:10123000FFFFF6FE70477047704770477047704772
:101240007047704717E004210B48FFF73CF90B4843
:10125000006883B2002211461046FFF7BDFB04214F
:101260000548FFF72EF90548006883B200221146B1
:101270001046FFF7B1FBE6E70008014058000020E8
:10128000704770477047704770477047704700005D
:1012900010B5FEF78FFFFFF71CF9FFF7A3FFFFF76D
:1012A0006FF8C82008490860084908600223084A06
:1012B00000210848FFF7BCF904460020FFF7C6FBF1
:1012C000FFF766F9204610BD580000205C000020A2
:1012D000EC0F0020410300080000010002000100A3
:1012E00003000100020001000400010002000100EF
:1012F00003000100020001000500010002000100DE
:1013000003000100020001000400010002000100CE
:1013100003000100020001000600010002000100BC
:1013200003000100020001000400010002000100AE
:10133000030001000200010005000100020001009D
:10134000030001000200010004000100020001008E
:10135000030001000200010007000100020001007B
:10136000030001000200010004000100020001006E
:10137000030001000200010005000100020001005D
:10138000030001000200010004000100020001004E
:10139000030001000200010006000100020001003C
:1013A000030001000200010004000100020001002E
:1013B000030001000200010005000100020001001D
:1013C000030001000200010004000100020001000E
:1013D0000300010002000100F813000800000020D3
:1013E00064000000540100085C1400086400002040
:1013F000EC1900007001000800000000000000006F
:1014000000000000000000000000000000000000DC
:1014100000000000000000000000000000000000CC
:1014200000000000000000000000000000000000BC
:1014300000000000000000000000000000000000AC
:10144000000000000000000000000000000000009C
:0C14500000000000000000000000000090
:0400000508000119D5
:00000001FF
