:020000040800F2
:1000000028130020890100088D0100088F010008D5
:10001000910100089301000895010008000000000C
:100020000000000000000000000000009701000830
:1000300099010008000000009B0100089D010008D4
:100040005D100008FB0D0008C90F0008CD0E000868
:10005000A1030008C90E00089303000897030008D5
:10006000990300089B0300089D030008850300080E
:1000700087030008890300088B0300088D0300082C
:100080008F03000891030008EF02000859100008D0
:100090005B10000881030008830300089F03000829
:1000A000CB0F0008D10F0008CF0F0008CD0F0008BC
:1000B000D30F0008D50F0008D70F000891040008DF
:1000C0008F0400089504000893040008CF0E000870
:1000D000D10E0008511000085310000855100008F8
:1000E00095030008CB0E00085710000800F002F836
:1000F00000F03AF80AA090E8000C82448344AAF188
:100100000107DA4501D100F02FF8AFF2090EBAE885
:100110000F0013F0010F18BFFB1A43F0010318473B
:1001200080100000A0100000103A24BF78C878C1E9
:10013000FAD8520724BF30C830C144BF04680C60ED
:10014000704700000023002400250026103A28BF35
:1001500078C1FBD8520728BF30C148BF0B60704739
:100160001FB51FBD10B510BD00F08BF81146FFF78D
:10017000F7FF00F075FF00F0A9F803B4FFF7F2FFF6
:1001800003BC00F0ADF8000008480047FEE7FEE7BA
:10019000FEE7FEE7FEE7FEE7FEE7FEE7FEE7FEE737
:1001A00003480449024A044B70470000ED00000870
:1001B00028110020281300202811002072B6704753
:1001C00062B67047EFF3108072B6704780F3108804
:1001D00070470000EFF3108072B6704780F310880C
:1001E000704724484FF0FF010170002080F3098818
:1001F0001D480121017020484FF08051016062B616
:10020000FEE71D484FF08051016070471A484FF0DB
:10021000805101607047EFF3098028B1203880E8F1
:10022000F00F12490968086000B50A4880475DF878
:1002300004EB0B480B490A7802700C480C490A6819
:100240000260106890E8F00F203080F309884EF0CB
:10025000040E7047CB080008810500081E0000202E
:10026000200000202100002023000020400000206A
:100270004800002022ED00E004ED00E070477047E8
:100280007047754600F028F8AE46050069465346AB
:1002900020F00700854618B020B5FFF781FFBDE8C4
:1002A00020404FF000064FF000074FF000084FF0DD
:1002B000000B21F00701AC46ACE8C009ACE8C0096E
:1002C000ACE8C009ACE8C0098D4670470446AFF3FE
:1002D00000802046FFF751FF00487047C4100020FF
:1002E00001491820ABBEFEE72600020070477047A8
:1002F0007047000070B586B000240326CDE90346A0
:1003000080250D48CDE901050720034600900B4AE2
:1003100021460B4800F0D8F90848CDE90346001DF6
:10032000CDE90105082003460090064A0021064851
:1003300000F0CAF906B070BD580200205404002035
:10034000D90F0008540600201510000870477047A8
:1003500000F028FB00F058F9FFF7CCFF00230A2239
:100360001946184600F0E0FAF8E77047704710B5F4
:1003700000F052FD00F016F8BDE8104000F08BB818
:1003800070477047704770477047704770477047B5
:1003900070477047704770477047704770477047A5
:1003A0007047000008B50121242000F027FD04203B
:1003B000ADF8000010208DF8030003208DF8020036
:1003C0006946054800F00CF84820ADF80000694681
:1003D000024800F005F808BD000801400014014083
:1003E0002DE9F0410022CC7804F00F03E40601D59A
:1003F0008C7823430C784FF00F0714F0FF0F4FF069
:10040000010C1CD005680CFA02F40E882640A642A6
:1004100011D1960007FA06F825EA080503FA06F84E
:1004200048EA0505CE78282E02D0482E02D002E0F8
:10043000446100E00461521C082AE4D305600A8884
:10044000FF2A1ED94568002202F108060CFA06F4BC
:100450000E882640A64210D1960007FA06F825EA33
:10046000080503FA06F848EA0505CE78282E00D1DB
:100470004461CE78482E00D10461521C082AE3D38F
:100480004560BDE8F0814161704701617047704788
:1004900070477047704708B500214FF0006000F0CA
:1004A0004DF84FF4E06000F03FF825208DF8000093
:1004B00000208DF8020001208DF80300684600F04E
:1004C00001F808BD70B50F23C27801260178002A13
:1004D0001ED0144A126802F4E062C2F5E062120A09
:1004E000C2F10404D3404578A54082781A402A43DB
:1004F000120101F1E02181F80024007800F01F01D1
:100500008E404009800000F1E020C0F8006170BD1D
:1005100001F01F0086404809800000F1E020C0F88B
:10052000806170BD0CED00E002490843024908609B
:10053000704700000000FA050CED00E0024A11408F
:10054000014302480160704780FFFF1F08ED00E093
:1005500010B500F012F800F087FA00F095FA00F0FC
:10056000A7FA00F05FFA00F03BFA00F0CBFA00F0D7
:10057000F1FABDE8104000F001B870477047000084
:1005800070B5134CE079012821D1FFF723FE054611
:10059000A17809B1491EA170A07898B9E07888B90E
:1005A00000F02EFB6179207981420BD0094850F888
:1005B0002110E162486B401C4863E068401CE06029
:1005C000FFF724FE2846BDE87040FFF707BE70BD68
:1005D0001C000020980B002010B5094CE079002881
:1005E0000CD100F00DFB60792071064951F8200014
:1005F000E0626062BDE81040FFF7F3BD10BD00008F
:100600001C000020980B002010B5022000F060F9BB
:10061000FFF7E0FD084C00212162FFF7DFFD0A2013
:1006200000F056F9FFF7D6FD216A61610121617082
:10063000BDE81040FFF7D2BD1C000020FFF758BEF8
:100640002DE9FE4305460E4690461C46FFF7C2FDC7
:100650001A49097821B1FFF7C1FD3C20BDE8FE83AE
:10066000174F57F8241019B1FFF7B8FD2820F5E708
:10067000012147F82410FFF7B1FD0023424631461F
:10068000284600F0F5F801460025009501952B4617
:100690002A462046029500F0DBFA06463EB1FFF7F7
:1006A00099FD47F82450FFF799FD3046D6E70548F5
:1006B00000780128F9D100F07FFAF6E71E0000204B
:1006C000980B0020230000202DE9FF4F83B08246C5
:1006D000DDE91197DDE913868B461C46FFF77AFDAD
:1006E0001D49097829B1FFF779FD3C2007B0BDE825
:1006F000F08F1A4D55F8241019B1FFF76FFD28201F
:10070000F4E7012145F82410FFF768FD3246394629
:10071000484600F067FB334659465046059A00F0BC
:10072000A7F80146CDE9007802964A462046109B7C
:1007300000F08EFA064646B1FFF74CFD002145F861
:100740002410FFF74BFD3046D0E70548007801281C
:10075000F9D100F031FAF6E71E000020980B0020D6
:1007600023000020FFF7F2BDFFF7F1BD2DE9F041B6
:1007700005460F4614461D480078002803D0122075
:100780002070BDE8F081FFF725FD0646FF2D03D15F
:100790001748006890F82E50164850F825504FF032
:1007A000430865B1012D10D0384600F047FA0F28F4
:1007B00011D93046FFF712FD41202070E1E73046A5
:1007C000FFF70CFD84F80080DBE73046FFF706FDFD
:1007D00084F80080D5E7394605F1480000F020FA9A
:1007E0003046FFF7FBFC00202070CAE71E00002007
:1007F00040000020980B0020FFF7B7BD2DE9F04125
:1008000004460E46002030607060FFF7E3FCFF2CCA
:1008100003D11549096891F82E40144951F8242054
:1008200052B1012A0DD0117CC9070ED00024D7681F
:100830009568FFF7D3FC0DE0FFF7D0FC4320BDE83F
:10084000F081FFF7CBFC4320F9E7FFF7C7FC452019
:10085000F5E7641C01CD0028FBD0A0003060381BF8
:10086000800070600020EAE740000020980B002024
:100870004FF08073136042F8040C083A6FF00100E7
:100880001060A2F130004FF01233C3624FF0033218
:1008900082624FF00232426252100262C1614FF036
:1008A000113181611101416159100161D100C160B3
:1008B0004FF0073181604FF0063141604FF0053154
:1008C00040F80419910001607047FFF74FBD000028
:1008D00070B504461048007800281BD1002C19D0B0
:1008E000FFF778FC0D49096891F830200C4D91F81C
:1008F0003160AB5CB343AB542BB90A4A91F8325028
:100900001378AB4313704C85FFF768FCBDE870406B
:1009100000F052B970BD00001E0000204000002011
:10092000380000202200002070B5174C2478002CDD
:1009300001D0552070BD5B1D642463434FF47A746D
:10094000B3FBF4F34FF461646043C1EB011100EBBE
:100950008100104400EBC00101EB001003EB8000AC
:10096000040C80B2FFF7B4FF4FF4004507E02846BF
:10097000FFF7AEFF2846FFF7ABFF641EA4B2002CC2
:10098000F5D1002070BD00001E00002010B5044607
:10099000FFF720FC02490C60BDE81040FFF71EBCC9
:1009A0005000002000B585B0684600F037FA019885
:1009B0006421B0FBF1F0B0F1807F0CD220F07F41D8
:1009C0004FF0E020491E4161044AF02111700021DE
:1009D00081610721016105B000BD000023ED00E049
:1009E00010B58C210D4800F0DDF80C4800F11C0218
:1009F000002100233F24037042608472C3721C30C4
:100A00001C32491C89B20429F5D3037043608472F7
:100A1000C37203490148086010BD0000381000206F
:100A20005400002010B54FF4A0710D4800F0BAF842
:100A30000B4800F12002002100233F240370426094
:100A4000C473037420302032491C89B20929F5D3BC
:100A500003704360C473037402490148086110BD08
:100A6000580600201C0000200648002141638170C8
:100A7000C1700172C171C1600162816141614170E7
:100A8000704700001C000020084B00229A7103F1FF
:100A90001C01002001F8012B401CC0B20428F9D32E
:100AA0001A715A71DA625A62704700001C00002005
:100AB00010B54FF48461114800F074F80F4880219C
:100AC000803800F06FF80D4800F158020021002432
:100AD0003F23426180F8483080F84940583058320E
:100AE000491CC9B20B29F4D3446180F8483080F81E
:100AF0004940034804630149816210BD180C00207D
:100B00001C00002000B587B080220B4BCDE90132DC
:100B100003200021CDE903104FF6FF7000901F2342
:100B2000064A0748FFF7D0FD06AA06A11F20FFF7D7
:100B30001DFE07B000BD000098090020940B0020A6
:100B4000310D000875432F4F532D49492049646CDE
:100B50006500000000B587B080220B4BCDE9013263
:100B600003200021CDE903104FF6FE7000901E23F4
:100B7000064A0748FFF7A8FD06AA06A11E20FFF7B0
:100B8000F5FD07B000BD0000980700209409002083
:100B90004D0D000875432F4F532D49492053746163
:100BA00074000000002203E000F8012B491E89B206
:100BB0000029F9D17047000070B5FFF70BFB05461F
:100BC0000D4CA07898B9E07888B900F019F86179EF
:100BD000207981420BD0094850F82110E162486B1E
:100BE000401C4863E068401CE060FFF70AFB2846B1
:100BF000BDE87040FFF7F2BA1C000020980B0020FF
:100C00000649054A8879105C01F11C031B5CD25C23
:100C100002EBC00048717047A01000081C000020C3
:100C2000002204E000F8013B491C521CD2B20B78B0
:100C3000002BF7D1002101701046704701460020BB
:100C400002E0491C401CC0B20A78002AF9D1704762
:100C50002DE9F05F0646DDE90ABA0D469046994651
:100C6000FFF7B8FA304FBC6A002C58D054F8141F64
:100C7000B962FFF7B3FA44F8145CA676002525762E
:100C80006576E58244F810AC44F808BC44F80C8C56
:100C90000C9824F8040C24F8029CE577F0082077DF
:100CA000012202FA00F1A17706F00700E07602FACD
:100CB00000F16177A5602561E5602562A562656246
:100CC000E56225633F2084F8340084F83550143CF5
:100CD0002046FFF7B3FC2046FFF744FDFFF77AFA02
:100CE0000146124840F82640386B6061A56100B1AA
:100CF00084613C633034BA79A0781043B8710A4AF1
:100D000020781C326478135C23431354387A401CD7
:100D100038720846FFF762FA0020BDE8F09FFFF73F
:100D20005DFA4220F9E700001C000020980B00202B
:100D3000054CFFF74FFA216A491C2162FFF74EFA72
:100D4000FFF712FDF5E700001C000020164D02E041
:100D50001420FFF7BDFD68780028F9D068694FF0CE
:100D60006408B0FBF8F40026FFF734FA296AA96199
:100D70002F6A2E62FFF732FA54B1B7FBF4F0C0F1DC
:100D8000640040B2002801DB287005E02E7003E00B
:100D90002E706869B0FBF8F4FFF72EFD00F006F83E
:100DA0000A20FFF795FDDFE71C0000207CB500243A
:100DB0000B4D69462046FFF721FD58B955F8241020
:100DC00041B1012906D0D1E9020200EB820008649A
:100DD00001984864641CE4B21F2CEAD97CBD000071
:100DE000980B0020D30707D0920705D5002201E019
:100DF000491E04C00029FBD170477047054A0029ED
:100E000003D0916901439161704791698143916178
:100E1000704700000010024000F0B6B810B5264A36
:100E2000516801F00C01254B002927D0042927D057
:100E3000082927D00360516801F0F0010909204B0F
:100E40005C5C0168E1404160546804F4E064240A99
:100E50001C5D21FA04F48460546804F46054E40ACC
:100E60001B5DD940C160526802F44042920B144BA2
:100E70001B1F9A5CB1FBF2F1016110BD0360DAE760
:100E80000360D8E7516801F47011536803F48033AC
:100E9000022404EB914133B153689B0307D5094BFE
:100EA00059430160C7E7074B59430160C3E7034B50
:100EB00059430160BFE700000010024000127A00B1
:100EC0000400002000093D007047704770477047DC
:100ED000704700F001B800000CB5002201920092AA
:100EE0002748016841F4803101604FF4A063016834
:100EF00001F4003100910199491C0191009911B947
:100F000001999942F3D10168890302D50121009129
:100F100000E000920099012900D0FEE719490A6813
:100F200042F010020A600A6822F003020A600A68AE
:100F300042F002020A6041684160416841604168D4
:100F400041F480614160416821F47C114160416855
:100F500041F4E8114160016841F08071016001686D
:100F60008901FCD5416821F003014160416841F0ED
:100F7000020141604168C1F381010229FAD10CBD2F
:100F800000100240002002400C48016841F00101BD
:100F9000016041680A4A114041600168094A1140F4
:100FA0000160016821F480210160416821F4FE01A3
:100FB000416000218160FFF78CBF000000100240FB
:100FC0000000FFF8FFFFF6FE70477047704770475C
:100FD00070477047704770470C4D0D4C04212846F0
:100FE000FFF753FA216800228BB211461046FFF733
:100FF0009BFC04212846FFF746FA2068002283B2B2
:1010000011461046FFF790FCE8E700000008014099
:10101000140000200C4D0D4C40212846FFF735FAF6
:10102000616800228BB211461046FFF77DFC40211B
:101030002846FFF728FA6068002283B2114610465E
:10104000FFF772FCE8E700000014014014000020E4
:10105000704770477047704770477047704700008F
:1010600010B5FFF7ABF8FFF773FAFFF780F90948FF
:10107000C821016041600223074A00210748FFF7A9
:10108000DFFA04460020FFF781FCFFF7A5FA2046AF
:1010900010BD00001400002054020020510300087D
:1010A0000000010002000100030001000200010035
:1010B0000400010002000100030001000200010021
:1010C0000500010002000100030001000200010010
:1010D0000400010002000100030001000200010001
:1010E00006000100020001000300010002000100EF
:1010F00004000100020001000300010002000100E1
:1011000005000100020001000300010002000100CF
:1011100004000100020001000300010002000100C0
:1011200007000100020001000300010002000100AD
:1011300004000100020001000300010002000100A0
:10114000050001000200010003000100020001008F
:101150000400010002000100030001000200010080
:10116000060001000200010003000100020001006E
:101170000400010002000100030001000200010060
:10118000050001000200010003000100020001004F
:101190000400010002000100030001000200010040
:1011A000C0110008000000205800000028010008BD
:1011B0001812000858000020D01200004401000856
:1011C00002040608000000000102030401020304F7
:1011D00006070809000000000000000000000000F1
:1011E00000000000000000000000000000000000FF
:1011F00000000000000000000000000000000000EF
:1012000000000000000000000000000000000000DE
:081210000000000000000000D6
:04000005080000ED02
:00000001FF
