:020000040800F2
:100000002819002001010008050100080701000867
:10001000090100080B0100080D01000800000000A4
:1000200000000000000000000000000011010008B6
:100030000F0100080000000013020008850F0008EF
:100040007D100008FB0D0008E90F0008C90E00082C
:10005000A7030008C50E0008990300089D030008C7
:100060009F030008A1030008A30300088B030008F6
:100070008D0300088F030008910300089303000814
:10008000950300089703000803030008791000088F
:100090007B1000088703000889030008A5030008F7
:1000A000EB0F0008F10F0008EF0F0008ED0F00083C
:1000B000F30F0008F50F0008F70F0008950400087B
:1000C000930400089904000897040008CB0E000868
:1000D000CD0E00087110000873100008751000089C
:1000E0009B030008C70E00087710000800000000FE
:1000F0000000000000000000000000000000000000
:1001000004480047FEE7FEE7FEE7FEE7FEE7FEE7FE
:10011000FEE700001901000800F002F800F03AF8CC
:100120000AA090E8000C82448344AAF10107DA4552
:1001300001D100F02FF8AFF2090EBAE80F0013F06A
:10014000010F18BFFB1A43F0010318477810000095
:1001500098100000103A24BF78C878C1FAD8520726
:1001600024BF30C830C144BF04680C607047000031
:100170000023002400250026103A28BF78C1FBD8B0
:10018000520728BF30C148BF0B6070471FB51FBD65
:1001900010B510BD00F07EF81146FFF7F7FF00F034
:1001A0006FFF00F09CF803B4FFF7F2FF03BC00F010
:1001B000A1F8000002480349034A044B70470000BD
:1001C00028110020281900202815002028150020BB
:1001D000EFF3108072B6704780F3108870472448A0
:1001E0004FF0FF010170002080F309881D480121B4
:1001F000017020484FF08051016062B6FEE71D4853
:100200004FF08051016070471A484FF080510160F3
:100210007047EFF3098028B1203880E8F00F1249C9
:100220000968086000B50A4880475DF804EB0B4890
:100230000B490A7802700C480C490A680260106881
:1002400090E8F00F203080F309884EF0040E7047DC
:1002500013080008C90400081E0000202000002028
:100260002100002023000020400000204800002042
:1002700022ED00E004ED00E072B6704762B6704710
:10028000EFF3108072B6704780F3108870477047A4
:1002900070477047754600F029F8AE46050069467C
:1002A000534620F00700854618B020B5FFF782FFBF
:1002B000BDE820404FF000064FF000074FF0000867
:1002C0004FF0000B21F00701AC46ACE8C009ACE8E8
:1002D000C009ACE8C009ACE8C0098D4670470446C7
:1002E000AFF300802046FFF75EFF00000048704734
:1002F000C410002001491820ABBEFEE72600020012
:10030000704770477047000070B586B00024032620
:10031000CDE9034680250D48CDE9010507200346B8
:1003200000900B4A21460B4800F072F90848CDE9CD
:100330000346001DCDE90105082003460090064A4A
:100340000021064800F064F906B070BD5802002094
:1003500054040020F90F000854060020351000084E
:100360007047704700F01EFB00F0F2F8FFF7CCFF7B
:1003700000230A221946184600F07AFAF8E7704777
:10038000704700F011B8704770477047704770476A
:1003900070477047704770477047704770477047A5
:1003A000704770477047704708B50121242000F05E
:1003B00025FD0420ADF8000010208DF80300032077
:1003C0008DF802006946054800F00CF84820ADF8A9
:1003D00000006946024800F005F808BD0008014029
:1003E000001401402DE9F0410022CC7804F00F0305
:1003F000E40601D58C7823430C784FF00F0714F0F6
:10040000FF0F4FF0010C1CD005680CFA02F40E88A7
:100410002640A64211D1960007FA06F825EA0805FB
:1004200003FA06F848EA0505CE78282E02D0482EB1
:1004300002D002E0446100E00461521C082AE4D3C7
:1004400005600A88FF2A1ED94568002202F10806C5
:100450000CFA06F40E882640A64210D1960007FA40
:1004600006F825EA080503FA06F848EA0505CE78F5
:10047000282E00D14461CE78482E00D10461521C50
:10048000082AE3D34560BDE8F0814161704701610E
:100490007047704770477047704710B500F012F80A
:1004A00000F0E2FA00F0F0FA00F002FB00F0BAFA15
:1004B00000F096FA00F026FB00F04CFBBDE810407F
:1004C00000F001B87047704770B5134CE07901280F
:1004D00021D1FFF77DFE0546A17809B1491EA17023
:1004E000A07898B9E07888B900F08AFB6179207922
:1004F00081420BD0094850F82110E162486B401C42
:100500004863E068401CE060FFF77EFE2846BDE8D7
:100510007040FFF761BE70BD1C000020980B0020EA
:1005200010B5094CE07900280CD100F069FB607926
:100530002071064951F82000E0626062BDE8104079
:10054000FFF74DBE10BD00001C000020980B0020DE
:1005500010B5022000F060F9FFF73AFE084C0021C8
:100560002162FFF739FE0A2000F056F9FFF730FE4E
:10057000216A616101216170BDE81040FFF72CBE66
:100580001C000020FFF7BEBE2DE9FE4305460E46C7
:1005900090461C46FFF71CFE1A49097821B1FFF767
:1005A0001BFE3C20BDE8FE83174F57F8241019B1FD
:1005B000FFF712FE2820F5E7012147F82410FFF786
:1005C0000BFE002342463146284600F0F5F801466E
:1005D0000025009501952B462A462046029500F0FD
:1005E00037FB06463EB1FFF7F3FD47F82450FFF70F
:1005F000F3FD3046D6E7054800780128F9D100F030
:10060000DBFAF6E71E000020980B002023000020F4
:100610002DE9FF4F83B08246DDE91197DDE91386AE
:100620008B461C46FFF7D4FD1D49097829B1FFF719
:10063000D3FD3C2007B0BDE8F08F1A4D55F82410CB
:1006400019B1FFF7C9FD2820F4E7012145F824106E
:10065000FFF7C2FD32463946484600F0C3FB334639
:1006600059465046059A00F0A7F80146CDE90078B2
:1006700002964A462046109B00F0EAFA064646B12A
:10068000FFF7A6FD002145F82410FFF7A5FD304631
:10069000D0E7054800780128F9D100F08DFAF6E797
:1006A0001E000020980B002023000020FFF758BEFA
:1006B000FFF757BE2DE9F04105460F4614461D4889
:1006C0000078002803D012202070BDE8F081FFF7E9
:1006D0007FFD0646FF2D03D11748006890F82E5085
:1006E000164850F825504FF0430865B1012D10D041
:1006F000384600F0A3FA0F2811D93046FFF76CFDF9
:1007000041202070E1E73046FFF766FD84F8008065
:10071000DBE73046FFF760FD84F80080D5E7394617
:1007200005F1480000F07CFA3046FFF755FD002047
:100730002070CAE71E00002040000020980B002017
:10074000FFF71DBE2DE9F04104460E460020306043
:100750007060FFF73DFDFF2C03D11549096891F842
:100760002E40144951F8242052B1012A0DD0117C99
:10077000C9070ED00024D7689568FFF72DFD0DE05E
:10078000FFF72AFD4320BDE8F081FFF725FD432058
:10079000F9E7FFF721FD4520F5E7641C01CD0028AE
:1007A000FBD0A0003060381B800070600020EAE7BA
:1007B00040000020980B00204FF08073136042F837
:1007C000040C083A6FF001001060A2F130004FF005
:1007D0001233C3624FF0033282624FF00232426240
:1007E00052100262C1614FF011318161110141610A
:1007F00059100161D100C1604FF0073181604FF0A5
:10080000063141604FF0053140F804199100016054
:100810007047FFF7B5BD000070B50446104800787A
:1008200000281BD1002C19D0FFF7D2FC0D49096814
:1008300091F830200C4D91F83160AB5CB343AB5470
:100840002BB90A4A91F832501378AB4313704C8598
:10085000FFF7C2FCBDE8704000F0AEB970BD00000B
:100860001E00002040000020380000202200002050
:1008700070B5174C2478002C01D0552070BD5B1D3D
:10088000642463434FF47A74B3FBF4F34FF461646C
:100890006043C1EB011100EB8100104400EBC0018B
:1008A00001EB001003EB8000040C80B2FFF7B4FFF3
:1008B0004FF4004507E02846FFF7AEFF2846FFF754
:1008C000ABFF641EA4B2002CF5D1002070BD000067
:1008D0001E00002010B50446FFF77AFC02490C60A8
:1008E000BDE81040FFF778BC500000202DE9F04132
:1008F00000F056F8FFF76CFC284D696B491C6963E2
:10090000FFF76AFCE879012845D1687A01260027BB
:1009100048B1012809D0022809D001206F720028AF
:1009200039D02C6B33E00120F9E70020F7E70120F4
:100930006E72F4E7FFF74CFC618D29B3491E090480
:10094000090C618520D194F82C1011F0370F06D0D6
:1009500021F0370184F82C1084F82D6001E084F830
:100960002D7094F82C1009070ED494F83210AA793F
:100970001143A971094A94F830101C3294F831C01F
:10098000535C43EA0C0353546469FFF725FC94F865
:100990002E001F28CED1BDE8F08100001C000020F1
:1009A0007047000000B585B0684600F035FA019840
:1009B0006421B0FBF1F0B0F1807F0CD220F07F41D8
:1009C0004FF0E020491E4161044AF02111700021DE
:1009D00081610721016105B000BD000023ED00E049
:1009E00010B58C210D4800F0DDF80C4800F11C0218
:1009F000002100233F24037042608472C3721C30C4
:100A00001C32491C89B20429F5D3037043608472F7
:100A1000C37203490148086010BD0000381000206F
:100A20005400002010B54FF4A0710D4800F0BAF842
:100A30000B4800F12002002100233F240370426094
:100A4000C473037420302032491C89B20929F5D3BC
:100A500003704360C473037402490148086110BD08
:100A6000580600201C0000200648002141638170C8
:100A7000C1700172C171C1600162816141614170E7
:100A8000704700001C000020084B00229A7103F1FF
:100A90001C01002001F8012B401CC0B20428F9D32E
:100AA0001A715A71DA625A62704700001C00002005
:100AB00010B54FF48461114800F074F80F4880219C
:100AC000803800F06FF80D4800F158020021002432
:100AD0003F23426180F8483080F84940583058320E
:100AE000491CC9B20B29F4D3446180F8483080F81E
:100AF0004940034804630149816210BD180C00207D
:100B00001C00002000B587B080220B4BCDE90132DC
:100B100003200021CDE903104FF6FF7000901F2342
:100B2000064A0748FFF774FD06AA06A11F20FFF733
:100B3000C1FD07B000BD000098090020940B002003
:100B4000310D000875432F4F532D49492049646CDE
:100B50006500000000B587B080220B4BCDE9013263
:100B600003200021CDE903104FF6FE7000901E23F4
:100B7000064A0748FFF74CFD06AA06A11E20FFF70C
:100B800099FD07B000BD00009807002094090020DF
:100B90004D0D000875432F4F532D49492053746163
:100BA00074000000002203E000F8012B491E89B206
:100BB0000029F9D17047000070B5FFF709FB054621
:100BC0000D4CA07898B9E07888B900F019F86179EF
:100BD000207981420BD0094850F82110E162486B1E
:100BE000401C4863E068401CE060FFF708FB2846B3
:100BF000BDE87040FFF7F0BA1C000020980B002001
:100C00000649054A8879105C01F11C031B5CD25C23
:100C100002EBC00048717047C41000081C0000209F
:100C2000002204E000F8013B491C521CD2B20B78B0
:100C3000002BF7D1002101701046704701460020BB
:100C400002E0491C401CC0B20A78002AF9D1704762
:100C50002DE9F05F0646DDE90ABA0D469046994651
:100C6000FFF7B6FA304FBC6A002C58D054F8141F66
:100C7000B962FFF7B1FA44F8145CA6760025257630
:100C80006576E58244F810AC44F808BC44F80C8C56
:100C90000C9824F8040C24F8029CE577F0082077DF
:100CA000012202FA00F1A17706F00700E07602FACD
:100CB00000F16177A5602561E5602562A562656246
:100CC000E56225633F2084F8340084F83550143CF5
:100CD0002046FFF757FC2046FFF7E8FCFFF778FABD
:100CE0000146124840F82640386B6061A56100B1AA
:100CF00084613C633034BA79A0781043B8710A4AF1
:100D000020781C326478135C23431354387A401CD7
:100D100038720846FFF760FA0020BDE8F09FFFF741
:100D20005BFA4220F9E700001C000020980B00202D
:100D3000054CFFF74DFA216A491C2162FFF74CFA76
:100D4000FFF7B6FCF5E700001C000020164D02E09E
:100D50001420FFF761FD68780028F9D068694FF02A
:100D60006408B0FBF8F40026FFF732FA296AA9619B
:100D70002F6A2E62FFF730FA54B1B7FBF4F0C0F1DE
:100D8000640040B2002801DB287005E02E7003E00B
:100D90002E706869B0FBF8F4FFF7D2FC00F006F89B
:100DA0000A20FFF739FDDFE71C0000207CB5002496
:100DB0000B4D69462046FFF7C5FC58B955F824107D
:100DC00041B1012906D0D1E9020200EB820008649A
:100DD00001984864641CE4B21F2CEAD97CBD000071
:100DE000980B0020D30707D0920705D5002201E019
:100DF000491E04C00029FBD170477047054A0029ED
:100E000003D0916901439161704791698143916178
:100E1000704700000010024010B5264A516801F0EA
:100E20000C01254B002927D0042927D0082927D0D9
:100E30000360516801F0F0010909204B5C5C016816
:100E4000E1404160546804F4E064240A1C5D21FA26
:100E500004F48460546804F46054E40A1B5DD940CF
:100E6000C160526802F44042920B144B1B1F9A5C03
:100E7000B1FBF2F1016110BD0360DAE70360D8E76E
:100E8000516801F47011536803F48033022404EBB9
:100E9000914133B153689B0307D5094B5943016016
:100EA000C7E7074B59430160C3E7034B5943016050
:100EB000BFE700000010024000127A000C00002082
:100EC00000093D007047704770477047704700F059
:100ED00001B800000CB50022019200922748016879
:100EE00041F4803101604FF4A063016801F40031E6
:100EF00000910199491C0191009911B901999942F8
:100F0000F3D10168890302D50121009100E000922C
:100F10000099012930D11A490A6842F010020A608A
:100F20000A6822F003020A600A6842F002020A60BC
:100F30004168416041684160416841F480614160BD
:100F4000416821F47C114160416841F4E81141603D
:100F5000016841F08071016001688901FCD5416838
:100F600021F003014160416841F0020141604168A4
:100F7000C1F381010229FAD10CBD0000001002402A
:100F80000020024010B5FFF723F9064A1178491CEA
:100F90001170FFF721F9FFF7A9FCBDE81040FFF73A
:100FA00093BA00001E0000200C48016841F00101C6
:100FB000016041680A4A114041600168094A1140D4
:100FC0000160016821F480210160416821F4FE0183
:100FD00041604FF41F018160FFF779BF00100240AC
:100FE0000000FFF8FFFFF6FE70477047704770473C
:100FF00070477047704770470C4D0D4C04212846D0
:10100000FFF745FA216800228BB211461046FFF720
:101010002FFC04212846FFF738FA2068002283B20B
:1010200011461046FFF724FCE8E7000000080140E5
:10103000000000200C4D0D4C40212846FFF727FAF8
:10104000616800228BB211461046FFF711FC402167
:101050002846FFF71AFA6068002283B2114610464C
:10106000FFF706FCE8E70000001401400000002044
:10107000704770477047704770477047704700006F
:1010800010B5FFF7F9F8FFF708FAFFF78DFFFFF744
:1010900078F90948C821016041600223074A00210C
:1010A0000748FFF771FA04460020FFF713FCFFF72B
:1010B00037FA204610BD0000000000205402002036
:1010C00065030008000001000200010003000100A8
:1010D0000200010004000100020001000300010001
:1010E00002000100050001000200010003000100F0
:1010F00002000100040001000200010003000100E1
:1011000002000100060001000200010003000100CE
:1011100002000100040001000200010003000100C0
:1011200002000100050001000200010003000100AF
:1011300002000100040001000200010003000100A0
:10114000020001000700010002000100030001008D
:101150000200010004000100020001000300010080
:10116000020001000500010002000100030001006F
:101170000200010004000100020001000300010060
:10118000020001000600010002000100030001004E
:101190000200010004000100020001000300010040
:1011A000020001000500010002000100030001002F
:1011B0000200010004000100020001000300010020
:1011C00002000100E41100080000002058000000A7
:1011D000540100083C12000858000020D0180000FC
:1011E0007001000800000000000000000204060872
:1011F00000000000010203040102030406070809BD
:1012000000000000000000000000000000000000DE
:1012100000000000000000000000000000000000CE
:1012200000000000000000000000000000000000BE
:0C123000000000000000000000000000B2
:0400000508000119D5
:00000001FF
