:020000040800F2
:1000000078040020890100088D0100088F01000894
:10001000910100089301000895010008000000000C
:100020000000000000000000000000009701000830
:1000300099010008000000009B0100089D010008D4
:100040009F0100089F0100089F0100089F01000810
:100050009F0100089F0100089F0100089F01000800
:100060009F0100089F0100089F0100089F010008F0
:100070009F0100089F0100089F0100089F010008E0
:100080009F0100089F0100089F0100089F010008D0
:100090009F0100089F0100089F0100089F010008C0
:1000A0009F0100089F0100089F0100089F010008B0
:1000B0009F0100089F0100089F0100089F010008A0
:1000C0009F0100089F0100089F0100089F01000890
:1000D0009F0100086D0400089F0100089F010008AF
:1000E0009F0100089F0100089F01000800F002F82E
:1000F00000F03AF80AA090E8000C82448344AAF188
:100100000107DA4501D100F02FF8AFF2090EBAE885
:100110000F0013F0010F18BFFB1A43F0010318473B
:100120005C0400007C040000103A24BF78C878C149
:10013000FAD8520724BF30C830C144BF04680C60ED
:10014000704700000023002400250026103A28BF35
:1001500078C1FBD8520728BF30C148BF0B60704739
:100160001FB51FBD10B510BD00F0D8F91146FFF73F
:10017000F7FF00F0F5F800F0F6F903B4FFF7F2FF2F
:1001800003BC00F02EF9000008480047FEE7FEE738
:10019000FEE7FEE7FEE7FEE7FEE7FEE7FEE7FEE737
:1001A00003480449024A044B70470000ED00000870
:1001B00078020020780400207802002010B500BFEB
:1001C00012205749086000BF00BF56485649486092
:1001D0005648086000BF00BF5348006800F4003074
:1001E0000028F9D000BF5048006800F000700028D7
:1001F000F9D000BF4C48406800F00C000828F9D145
:1002000000BF00BF4848806940F00400464988614B
:100210004748484908600020091D08604248806935
:1002200040F00800404988610020434908604FF0D1
:100230003330091D08603C48806940F010003A499D
:10024000886100203D4908604FF48000486000BF8D
:1002500000F005F810BD3A4870473A4870473248F8
:10026000806940F00100304988613748406820F0DB
:100270000400354948602C48806940F004002A4950
:1002800088612C48001D006820F47F602949091D01
:1002900008600846006840F0B00008600846006842
:1002A00040F4806008602048806940F480401E4926
:1002B000886140F2A110254908800020091D0880AE
:1002C000091D0880081F0088091F088000201F4999
:1002D0000C3108801D48001D008840F00C001B49AF
:1002E000091D08800846008840F020000880081D8D
:1002F0000088091D0880081D0088091D0880144811
:10030000006840F020004FF0E021C1F804010F48E0
:10031000001D008840F400500C49091D08807047FA
:10032000002002400284050000100240820001010A
:100330003433333300080140000C01400010014009
:10034000001BB70000366E01000001400838014074
:1003500004E100E000BF0100A0F10100FBD1704703
:1003600000F042F8FFF72AFF0C48006820F0040074
:100370000A49086011E00948006820F004000749B4
:1003800008600748FFF7E6FF0448006840F00400F3
:10039000024908600248FFF7DDFFECE70C08014066
:1003A000A086010070B504460D46204600F028F8EE
:1003B00070BD70B5054600BF00F045F80446601CEE
:1003C0000028F9D0204600F01BF8204670BD10B57B
:1003D0000446204600F014F810BD01464FF0FF30EF
:1003E000704700BFFEE700000020464908604860F3
:1003F0000120454908600020444908604860704772
:1004000010B502463F49084600880B469B88C01A33
:1004100080B2FF2802DD4FF0FF3010BD0C7801F1F3
:10042000080002550868401C08603748006840B161
:100430000020354B18603648008840F08000344B6F
:1004400018800020E9E73149084600880A4692886A
:10045000801A80B210B94FF0FF3070470A794868AF
:10046000401C486001F10800805CF6E708B52849A7
:100470000C3909880091009901F02001C9B1244983
:100480000C39098821F02001214A0C3A11801F48BB
:10049000D0E90012891A21F4807151B91C49083938
:1004A0000988CAB2037800F10801CA540168491CDE
:1004B0000160009901F0800119B315490C390988D0
:1004C00021F08001124A0C3A11800E48D0E9001246
:1004D00091420DD0027900F10801895C0C4A083A7A
:1004E00011804168491C41600021074A116008E001
:1004F0000121054A11600649098821F08001044A5A
:10050000118008BD0C010020000000200400002024
:100510000C3801407047704770477047754600F0CF
:1005200029F8AE4605006946534620F00700854687
:1005300018B020B5FFF734FEBDE820404FF00006AC
:100540004FF000074FF000084FF0000B21F00701BB
:10055000AC46ACE8C009ACE8C009ACE8C009ACE8FE
:10056000C0098D4670470446AFF300802046FFF770
:1005700004FE000000487047140200209C0500089B
:10058000000000200400000028010008A005000869
:100590000400002074040000440100080100000071
:04000005080000ED02
:00000001FF
