:020000040800F2
:1000000080040020F1040008F5040008F70400084B
:10001000F9040008FB040008FD04000800000000CB
:10002000000000000000000000000000FF040008C5
:100030000105000800000000030500080505000890
:100040000705000807050008070500080705000860
:100050000705000807050008070500080705000850
:100060000705000807050008070500080705000840
:100070000705000807050008070500080705000830
:100080000705000807050008070500080705000820
:100090000705000807050008070500080705000810
:1000A0000705000807050008070500080705000800
:1000B00007050008070500080705000807050008F0
:1000C00007050008070500080705000807050008E0
:1000D000070500084904000807050008070500088F
:1000E00007050008070500080705000800F002F8EA
:1000F00000F03AF80AA090E8000C82448344AAF188
:100100000107DA4501D100F02FF8AFF2090EBAE885
:100110000F0013F0010F18BFFB1A43F0010318473B
:100120000005000020050000103A24BF78C878C1FF
:10013000FAD8520724BF30C830C144BF04680C60ED
:10014000704700000023002400250026103A28BF35
:1001500078C1FBD8520728BF30C148BF0B60704739
:100160001FB51FBD10B510BD00F018FA1146FFF7FE
:10017000F7FF00F00FF800F049FA03B4FFF7F2FFC1
:1001800003BC00F053F8000000BF0100A0F1010023
:10019000FBD1704700F016F900F04AF80E480068ED
:1001A00020F004000C49086014E00B48006820F0BF
:1001B0000400094908600948FFF7E6FF064800689F
:1001C00040F00400044908600448FFF7DDFF04A084
:1001D00000F0AAF9E9E700000C080140A086010040
:1001E00053544D3332463130335A4554720A00006D
:1001F00070B504460D46204600F0F0F870BD70B5AD
:10020000054600BF00F00DF90446601CFAD02046F8
:1002100000F0E4F8204670BD10B50446204600F01A
:10022000DDF810BD01464FF0FF30704700BFFEE71C
:1002300010B500BF12205549086000BF00BF5448E8
:10024000544948605448086000BF00BF51480068E6
:1002500010F4003FFAD000BF4E48006810F0007F55
:10026000FAD000BF4B48406800F00C000828F9D1D4
:1002700000BF00BF4748806940F0040045498861DD
:100280004648474908600020091D086041488069C8
:1002900040F008003F4988610020424908604FF063
:1002A0003330091D08603B48806940F0100039492F
:1002B000886100203C4908604FF48000486000BF1E
:1002C00000F005F810BD394870473948704731488B
:1002D000806940F001002F4988613648406820F06D
:1002E0000400344948602B48806940F004002949E3
:1002F00088612B48001D006820F47F602849091D93
:1003000008600846006840F0B000086008460068D1
:1003100040F4806008601F48806940F480401D49B7
:10032000886140F2A110244908800020091D08803E
:10033000091D0880081F0088091F088000201E4929
:100340000C3108801C48001D008840F00C001A4940
:10035000091D08800846008840F020000880081D1C
:100360000088091D0880081D0088091D08801348A1
:10037000006840F020004FF0E021C1F8040110486F
:10038000008840F400500E49088070470020024069
:10039000028405000010024082000101343333332F
:1003A00000080140000C014000100140001BB70094
:1003B00000366E01000001400838014004E100E011
:1003C0000C3801400020464908604860012045493A
:1003D00008600020444908604860704710B5024634
:1003E0003F49084600880B469B88C01A80B2FF2808
:1003F00002DD4FF0FF3010BD0C7801F1080002550E
:100400000868401C08603748006840B10020354B40
:1004100018603648008840F08000344B1880002077
:10042000E9E73149084600880A469288801A0004A4
:10043000000C01D1401E70470A794868401C486092
:1004400001F10800805CF6E708B528490C390988F5
:100450000091009911F0200F19D024490C39098816
:1004600021F02001214A0C3A11801F48D0E90012E6
:10047000891A31F480710AD11C4908390988CAB235
:10048000037800F10801CA540168491C0160009911
:1004900011F0800F23D015490C39098821F0800113
:1004A000124A0C3A11800E48D0E9001291420DD048
:1004B000027900F10801895C0C4A083A1180416810
:1004C000491C41600021074A116008E00121054AEA
:1004D00011600649098821F08001044A118008BD95
:1004E00014010020080000200C0000200C380140FE
:1004F00008480047FEE7FEE7FEE7FEE7FEE7FEE707
:10050000FEE7FEE7FEE7FEE703480449024A044B24
:1005100070470000ED0000088002002080040020E9
:1005200080020020704700000FB4044910B503AAF0
:10053000029800F009F810BC5DF814FB00000020E0
:100540007047704770470000074B70B50D467B44FD
:1005500000F011F804462846FFF764FE10B14FF092
:10056000FF3070BD204670BD9FFCFFFF01694A1C33
:1005700002610878704700B58FB0CDE901310021E4
:10058000059105497944CDE903101146684600F00C
:100590002AF80FB000BD0000E5FFFFFF754600F030
:1005A0003BF8AE4605006946534620F007008546F5
:1005B00018B020B5FFF7A8FFBDE820404FF00006B7
:1005C0004FF000074FF000084FF0000B21F007013B
:1005D000AC46ACE8C009ACE8C009ACE8C009ACE87E
:1005E000C0098D4670472DE9F04106460024D6E942
:1005F0000170F568804602E04146B847641C304609
:10060000A8470028F8D12046BDE8F0810446AFF3A2
:1006100000802046FFF7B1FD004870471C02002013
:1006200040060008000000200C000000280100081F
:100630004C0600080C00002074040000440100086F
:0C064000000000000000000001000000AD
:04000005080000ED02
:00000001FF
