:020000040800F2
:1000000068190020950200089D0200089F02000860
:10001000A1020008A3020008A502000800000000D9
:10002000000000000000000000000000A70200081F
:10003000A9020008000000002F020008591800085B
:10004000AF020008AF020008AF020008AF020008CC
:10005000AF020008AF020008AF020008AF020008BC
:10006000AF020008AF020008AF020008AF020008AC
:10007000AF020008AF020008AF020008AF0200089C
:10008000AF020008AF020008AF020008AF0200088C
:10009000AF020008AF020008AF020008AF0200087C
:1000A000AF020008AF020008AF020008AF0200086C
:1000B000AF020008AF020008AF020008AF0200085C
:1000C000AF020008AF020008AF020008AF0200084C
:1000D000AF0200084D190008AF020008AF02000887
:1000E000AF020008AF020008AF020008AF0200082C
:1000F000AF020008AF020008AF020008AF0200081C
:10010000AF020008AF020008AF020008AF0200080B
:10011000AF020008AF020008AF020008AF020008FB
:10012000AF020008AF020008AF020008AF020008EB
:1001300000F002F800F03FF80AA090E8000C8244BA
:100140008344AAF10107DA4501D100F034F8AFF297
:10015000090EBAE80F0013F0010F18BFFB1A43F0A5
:10016000010318479C1B0000BC1B0000103A24BF71
:1001700078C878C1FAD8520724BF30C830C144BF0C
:1001800004680C607047000000230024002500264E
:10019000103A28BF78C1FBD8520728BF30C148BFEA
:1001A0000B607047732900F01581002070471FB560
:1001B0001FBD10B510BD00F03BF91146FFF7F7FF6A
:1001C00001F0F4FC00F059F903B4FFF7F2FF03BCAF
:1001D00001F0DFFC72B6704762B67047EFF3108033
:1001E00072B6704780F3108870470000EFF31080FC
:1001F00072B6704780F31088704724484FF0FF01B3
:100200000170002080F309881D48012101702048F9
:100210004FF08051016062B6FEE71D484FF08051FB
:10022000016070471A484FF0805101607047EFF34A
:10023000098028B1203880E8F00F12490968086069
:1002400000B50A4880475DF804EB0B480B490A7873
:1002500002700C480C490A680260106890E8F00FC0
:10026000203080F309884EF0040E7047F10D00082D
:1002700085070008310000203300002034000020F2
:100280003A000020400000204800002022ED00E05D
:1002900004ED00E00948804709480047FEE7FEE713
:1002A000FEE7FEE7FEE7FEE7FEE7FEE7FEE7FEE726
:1002B00004480549054A064B7047000081180008AC
:1002C000310100086813002068190020681500201B
:1002D00068150020704700000FB4044910B503AA48
:1002E000029800F07BF810BC5DF814FB08000020B9
:1002F0002DE9F0410E460446002020622046E168C8
:10030000884730B3252805D0D4E901219047206AD9
:10031000401CF2E7E168204600278847050018D016
:10032000A5F14100192802D820354FF40067324664
:10033000294620462760FFF735FF40B1012804D049
:10034000F61D26F007060836D8E7361DD6E72846FC
:10035000DAE7206ABDE8F08170B50C460546012A4F
:1003600005D02878800600D5EA69002302E0012341
:1003700005E05B1C934202D2E05C0028F9D1A86939
:10038000E618C01AA861286A184428622846AFF304
:10039000008004E0D5E9012114F8010B9047B44234
:1003A000F8D32846AFF3008070BD704770477047A0
:1003B00010B5436913B1AFF3008001E0FFF7CCFF44
:1003C000012010BD127800F124010A7000224A7049
:1003D0000122EDE711684FF0FF32E9E7074B70B5F6
:1003E0000D467B4400F011F80446284601F0D3FB8B
:1003F00010B14FF0FF3070BD204670BDB91700003E
:1004000001694A1C02610878704700B58FB0CDE9D8
:1004100001310021059105497944CDE903101146C8
:100420006846FFF765FF0FB000BD0000E5FFFFFF66
:10043000754600F029F8AE4605006946534620F09F
:100440000700854618B020B5FFF732FFBDE8204011
:100450004FF000064FF000074FF000084FF0000B80
:1004600021F00701AC46ACE8C009ACE8C009ACE833
:10047000C009ACE8C0098D4670470446AFF3008060
:100480002046FFF7A1FE0000004870470813002037
:100490007047000000B585B0002000F0BBF911499D
:1004A0000860032000214FF480720F4BCDE9013228
:1004B000CDE90310042003460C4A00900C4800F0DC
:1004C000FDFA0320002180220A4BCDE90132CDE95B
:1004D000031007200346084A0090084800F0EEFA8F
:1004E00005B000BD040000206C0400206808002056
:1004F0001D1900086C02002068040020E1180008A3
:100500007047704700F070FD00F05AFAFFF7C2FF25
:1005100005E000230A221946184600F0A5FCF8E77A
:100520007047704708B50121042001F095F80121BA
:10053000880301F091F80121084601F08DF80420AC
:10054000ADF8000010208DF8030003208DF80200A4
:1005500069460E4800F01CF84FF48060ADF80000CA
:1005600004208DF803006946084800F011F84FF4A4
:100570000070ADF8000018208DF8030003208DF8FE
:1005800002006946014800F003F808BD0008014078
:100590002DE9F0410246002500260020002300241A
:1005A000002791F803C00CF00F0591F803C00CF080
:1005B000100CBCF1000F03D091F802C04CEA050505
:1005C00091F800C0BCF1000F31D0146800202BE07E
:1005D0004FF0010C0CFA00F3B1F800C00CEA03066E
:1005E0009E4220D183004FF00F0C0CFA03F7BC435E
:1005F00005FA03FC4CEA040491F803C0BCF1280F8F
:1006000006D14FF0010C0CFA00FCC2F814C00AE04D
:1006100091F803C0BCF1480F05D14FF0010C0CFA62
:1006200000FCC2F810C0401C0828D1D31460B1F8F7
:1006300000C0BCF1FF0F34DD546800202EE000F153
:10064000080C4FF0010808FA0CF3B1F800C00CEAEE
:1006500003069E4221D183004FF00F0C0CFA03F7E2
:10066000BC4305FA03FC4CEA040491F803C0BCF156
:10067000280F05D100F1080C08FA0CF8C2F8148014
:1006800091F803C0BCF1480F07D100F1080C4FF0FE
:10069000010808FA0CF8C2F81080401C0828CED3D4
:1006A0005460BDE8F081416170470161704708B551
:1006B00000214FF0006000F045F825208DF8000083
:1006C00000208DF8020001208DF80300684600F03C
:1006D00001F808BD70B5002100230F22C47804B3CF
:1006E000154C246804F4E064C4F5E064210AC1F107
:1006F0000403CA40447804FA03F184781440214387
:1007000009010E4C0678A155047804F01F05012458
:10071000AC4005786D11AD0005F1E025C5F800414C
:1007200009E0047804F01F050124AC40044D06786C
:10073000761145F8264070BD0CED00E000E400E0C5
:1007400080E100E0024A0A400243024B1A6070470F
:1007500080FFFF1F08ED00E010B500F011F800F079
:1007600025FD00F04DFD00F06FFD00F0F7FC00F0FE
:10077000CFFC00F09DFD00F0C3FD00F002F810BDBD
:100780007047704710B500241A480078012830D10E
:10079000FFF72CFD044618480078002804DD1648B1
:1007A0000078401E1449087013480078F0B91348C7
:1007B0000078D8B900F010FE114800781149097886
:1007C000884213D010480E49097850F821000F498B
:1007D000086008460068806B401C096888630C4804
:1007E0000068401C0A490860FFF71CFD2046FFF71F
:1007F00001FD10BD3A000020310000203200002031
:100800003400002033000020380E00204800002073
:100810001800002070B50546002612480078002810
:1008200001DD002070BDFFF7E1FC06460E480468BC
:10083000006820B10C48006840680B4908603046E9
:10084000FFF7D8FC5CB1012020700020208165609A
:100850003F20E07300212174204600F04BFC20462D
:10086000E0E70000310000201C0000202DE9F041ED
:1008700005460F4614464FF000082878012804D09A
:10088000012020700020BDE8F08138480078002861
:1008900003DD022020700020F5E7354800780028AD
:1008A00003DD0D2020700020EDE7FFF79FFC804660
:1008B0006E6846B1002068604046FFF79BFC002050
:1008C00020703046DFE72B48006890F8300040F099
:1008D00002002849096881F830000020254909688C
:1008E00081F8310023480068C785284600F0C4FB22
:1008F0004046FFF77FFC00F035FDFFF777FC8046B0
:100900001C48006890F8310020B101280DD0022861
:100910000AD105E017480068466A002020700DE003
:1009200000260E20207009E000BF2946114800680B
:1009300000F08CFB00260A20207000BF00BF0020C2
:100940000C49096881F830000A49096881F83100CA
:1009500008490968C86107490968086205490968C2
:1009600048624046FFF746FC30468CE731000020E5
:10097000320000204000002010B50B48007890B9EC
:1009800000F02AFD0948007809490870094807491C
:10099000097850F8210008490860084600680749AE
:1009A0000860FFF72AFC10BD3A0000203400002048
:1009B00033000020380E00204800002040000020B6
:1009C00010B50024022000F017FAFFF70FFC0446D0
:1009D00000200B4908602046FFF70CFC0A2000F0BD
:1009E0000BFAFFF703FC0446054800680549086058
:1009F0000120054908702046FFF7FCFB10BD0000F0
:100A00003C000020280000203000002010B50446E3
:100A10002046FFF73DFD10BD2DE9FE4F06460F466F
:100A200090461C464FF00009FFF7E0FB8146204846
:100A30000078002805DD4846FFF7DCFB3C20BDE8D8
:100A4000FE8F1C4850F8240060BB0120194941F872
:100A500024004846FFF7CEFB002342463946304685
:100A600000F024F9824600200090019003460246DF
:100A700051460290204600F0DDFC054635B90E488F
:100A8000007801280CD100F06DFC09E0FFF7AEFB07
:100A900081460020074941F824004846FFF7AAFB99
:100AA0002846CCE74846FFF7A5FB2820C7E700000B
:100AB00031000020380E00203A0000202DE9F04FD0
:100AC00085B081468A4693461C46DDE90F78129D23
:100AD00000200390FFF78AFB03902348007800284A
:100AE00006DD0398FFF786FB3C2005B0BDE8F08FDC
:100AF0001E4850F8240088BB01201C4941F82400FE
:100B00000398FFF777FB2A464146384600F096FDEA
:100B10002B465A465146484600F0C8F804901198B2
:100B2000CDE9008002953A4620460E9B049900F0DC
:100B300081FC064636B90E48007801280CD100F039
:100B400011FC09E0FFF752FB03900020074941F830
:100B500024000398FFF74EFB3046C6E7FFE70398F3
:100B6000FFF748FB2820C0E731000020380E0020A6
:100B70003A00002010B504462046FFF7C1FC10BD26
:100B800010B5FFF7BEFC10BD2DE9F04706468846BC
:100B900014464FF000091D480078002803DD12209C
:100BA0002070BDE8F087FFF721FB8146FF2E03D1BF
:100BB0001748006890F83260164850F826502DB952
:100BC0004846FFF717FB43202070EAE7012D05D1C7
:100BD0004846FFF70FFB43202070E2E7404600F055
:100BE0001FFC07460F2F05DD4846FFF703FB41209A
:100BF0002070D6E7414605F14C0000F003FC484662
:100C0000FFF7F8FA0020207000BFCAE7310000208B
:100C100040000020380E002010B5FFF781FC10BD09
:100C20002DE9F04707460D464FF0000A00202860E6
:100C30006860FFF7DBFA8246FF2F03D1194800688E
:100C400090F83270184850F827402CB95046FFF7FA
:100C5000D1FA4320BDE8F087012C04D15046FFF7BC
:100C6000C9FA4320F6E7207C00F0010020B9504685
:100C7000FFF7C0FA4520EDE70026D4F80C90D4F831
:100C800008805046FFF7B6FA00E0761C58F8041BBF
:100C90000029FAD0B0002860A9EB06008000686047
:100CA0000020D7E740000020380E002070B5044631
:100CB00010464FF080750560051F28462C606FF0C8
:100CC0000106051F28462E604FF01236051F2846E4
:100CD0002E604FF00336051F28462E604FF0023677
:100CE000051F28462E607610051F28462E60051F1A
:100CF000284629604FF01136051F28462E604FF018
:100D00001036051F28462E604FF00936051F28466D
:100D10002E604FF00836051F28462E604FF007362C
:100D2000051F28462E604FF00636051F28462E6008
:100D30004FF00536051F28462E604FF00436051F7C
:100D400028462E6070BD00002DE9F04105464FF0A9
:100D50000008FFF74BFA8046FF2D05D120480068B8
:100D600090F83250012608E01D48006890F83200E3
:100D7000A84201D1012600E000261A4850F825407B
:100D80002CB94046FFF736FA4820BDE8F081012C27
:100D900004D14046FFF72EFA4320F6E794F834706A
:100DA0001148C05D94F8351088430F49C85508466E
:100DB000C05D30B994F836100C48007888430B4970
:100DC000087094F8300040F0080084F83000404685
:100DD000FFF710FA012E01D100F0C4FA0020D4E789
:100DE00040000020380E0020360000203500002092
:100DF00010B5FFF796FB10BD70B5054600261648E6
:100E00000078002800DD70BD002D23DDFFF7EEF92E
:100E100006461248006890F834401148005D0F49BA
:100E2000096891F8351088430D4908550846005D5A
:100E300040B90A48006890F836100A48007888439C
:100E40000849087005480068C5853046FFF7D2F9A3
:100E500000F088FA00BFD6E73100002040000020F3
:100E600036000020350000202DE9F04706460F46E9
:100E70009046994618480078002802DD5520BDE8C4
:100E8000F08709F10500642148434FF47A71B0FB03
:100E9000F1F14FF461607043C7EB071200EB820081
:100EA000404400EBC00202EB001001EB8004250C73
:100EB000A4B22046FFF7A0FF09E04FF40040FFF77F
:100EC0009BFF4FF40040FFF797FF681E85B2002D8F
:100ED000F3DC0020D3E700003100002070B50446A9
:100EE0000025FFF783F90546024804602846FFF70E
:100EF00081F970BD5400002070B5002600F072F832
:100F0000FFF774F9064631480068401C2F49086015
:100F10003046FFF76FF92E480078012853D12D484D
:100F2000007820B1012804D0022809D103E001256E
:100F30000BE0002509E0012501202649087004E0A6
:100F4000012500202349087000BF00BF05B970BD0E
:100F50002148046833E0FFF749F90646E08D50B3B5
:100F6000E08D401E80B2E08528BB94F8300000F090
:100F7000370040B114F8300F20F037002070012006
:100F80006070303C02E0002084F8310094F83000BA
:100F900000F0080078B93434A07810490978084383
:100FA0000E49087020780E49085C6178084314F8EF
:100FB00034190B4A505464693046FFF71BF994F812
:100FC00032001F28C7D100BFC1E700005400002035
:100FD0003A000020500000204C0000203500002086
:100FE000360000207047000070B586B001A800F000
:100FF00043FB64210298B0FBF1F42146481EB0F196
:10100000807F00D31BE0481E4FF0E0225061501754
:101010000F22002807DA13071E0E0A4B00F00F05F7
:101020002D1F5E5503E013071D0E074B1D5400BF17
:1010300000204FF0E02290610720106100BF06B051
:1010400070BD000018ED00E000E400E010B590F87D
:10105000342001F10B039B5C90F83540A34301F170
:101060000B04A35423469B5C23B98B7A90F836403B
:10107000A3438B7210BD000010B51B4A1268D061EB
:10108000194A126892F8343000F10B02D25C164B08
:101090001B6893F835301A43134B1B6893F83440A0
:1010A00000F10B031A55827A0F4B1B6893F8363008
:1010B0001A4382720C4A126892F834100B4A525C3E
:1010C000094B1B6893F835309A43084B5A541A461B
:1010D000525C42B9044A126892F83630044A1278D7
:1010E0009A43034B1A7010BD4000002036000020C8
:1010F000350000200023837200F10B01002204E080
:10110000002301F8013B531CDAB2042AF8DB7047D4
:1011100070B58C210F4800F01BF90E4C04F11C0631
:1011200000250AE00020207066603F20A0720021A8
:10113000E1721C341C36681C85B2042DF2DB0020E1
:10114000207060603F20A0720021E17201480249D6
:10115000086070BDAC0900202000002030B54FF4BD
:10116000A071104800F0F4F80E4B03F120050024A4
:101170000AE0002018705D603F20D87300211974C8
:1011800020332035601C84B2092CF2DB002018705B
:1011900058603F20D8730021197402480249086042
:1011A00030BD00006C0800201C00002000200A490F
:1011B00008600A4908700A4908700A4908700A4913
:1011C00008700A4908600A4908600A4908600A4923
:1011D00008600A4908707047540000203100002060
:1011E000320000203B0000203A00002018000020C0
:1011F0003C0000202C0000202800002030000020AF
:1012000000220B4B1A700B49002004E0002201F869
:10121000012B421CD0B20428F8DB0022064B1A70C6
:10122000064B1A70064B1A60064B1A607047000096
:10123000350000203600002033000020340000205C
:10124000480000204000002030B54FF48A61144867
:1012500000F07EF88021134800F07AF8104B03F17B
:101260005C0500240AE05D613F2083F84C0000210A
:101270004D20C1545C335C35601CC4B20B2CF2D3DE
:10128000002058613F2083F84C0000214D20C154BC
:1012900000200549086002480449086030BD00008C
:1012A000B80E0020380E00204C0000204400002022
:1012B00000B587B00320002180220A4BCDE901321E
:1012C000CDE903104FF6FF701F23074A009007482F
:1012D000FFF7F4FB06AA06A11F20FFF755FC07B095
:1012E00000BD0000380C0020340E00205515000809
:1012F00075432F4F532D49492049646C6500000008
:1013000000B587B00320002180220A4BCDE90132CD
:10131000CDE903104FF6FE701E23074A00900748E0
:10132000FFF7CCFB06AA06A11E20FFF72DFC07B095
:1013300000BD0000380A0020340C00207915000898
:1013400075432F4F532D4949205374617400000099
:1013500004E0002200F8012B4A1E91B20029F8DCBB
:101360007047000010B50024FEF740FF0446134804
:101370000078F0B912480078D8B900F02DF811487B
:10138000007811490978884213D010480D4909782E
:1013900050F821000E49086008460068806B401C28
:1013A000096888630B480068401C0A490860FEF71A
:1013B00034FF2046FEF71EFF10BD00003100002064
:1013C000320000203400002033000020380E0020BE
:1013D00048000020180000200649074A1278885C5F
:1013E0000649095C034A515C01EBC001044A1170D3
:1013F00070470000001C0008350000203600002067
:10140000340000200246002005E011F8013B02F8FC
:10141000013B431CD8B20B78002BF6D113707047F8
:101420000146002002E0491C421CD0B20A78002A82
:10143000F9D170472DE9F84F05460E4617469846F4
:10144000DDE90BABDDF8289000200090FEF7CEFE22
:1014500000903A480468002C6BD0183454F8040CFF
:10146000364908600098FEF7C5FE44F8186CA5766A
:10147000002020766076E08244F814AC44F80C9C9E
:1014800044F8107C24F808BC24F8068CE077E810B7
:10149000207705F00700E076217F01208840A077C3
:1014A000E17E01208840607700206060A0602061BC
:1014B000E0602062A0626062E06220633F2084F806
:1014C0003400183C00214D2001552046FFF79EFABC
:1014D0002046FFF74FFBFEF789FE0090184840F8C2
:1014E00025401848006860610020A0611548006828
:1014F00010B1144800688461124804603434A07844
:101500001149097808431049087020780F49085C90
:101510006178084314F834190C4A50540C48007888
:10152000401C0B4908700098FEF764FE0020BDE8DF
:10153000F88F0098FEF75EFE4220F8E74400002096
:10154000380E00204C00002035000020360000201E
:101550003B000020002400BFFEF748FE044605487B
:101560000068401C034908602046FEF743FEFFF771
:1015700007FBF1E73C000020002402E01420FFF705
:101580003BFC1A4800780028F8D01948006864210C
:10159000B0FBF1F0164908600846006828B9002041
:1015A00014490870FF20FFF7CFFB00BFFEF71EFEB7
:1015B0000446114800681149086000200E4908607F
:1015C0002046FEF717FE0D48006809490968B0FB80
:1015D000F1F0C0F1640007490870FFF71DFB00F04F
:1015E0000FF80A20FFF708FCE0E7000030000020B9
:1015F00028000020240000203C0000202C000020B7
:101600007CB5002514E069462846FFF709FB06462D
:1016100066B9094850F8254044B1012C06D0D4E9F8
:10162000020100EB810060640198A064681CC5B2EF
:101630001F2DE8DD7CBD0000380E002002F0010304
:1016400043B102F002032BB102E0491E002308C09F
:101650000029FAD17047000029B1064A9269024375
:10166000044B9A6104E0034A92698243014B9A61F8
:10167000704700000010024030B500210022002415
:1016800000232D4D6D6805F00C0121B1042905D012
:10169000082923D105E0294D056022E0274D05608A
:1016A0001FE0254D6D6805F47012234D6D6805F43B
:1016B0008034022505EB92421CB9214D554305604B
:1016C0000BE01D4D6D6805F400351DB11C4D5543F3
:1016D000056002E0194D5543056002E0174D0560B5
:1016E00000BF00BF144D6D6805F0F0010909154DEC
:1016F0006B5C0568DD4045600F4D6D6805F4E06189
:10170000090A104D6B5C4568DD4085600A4D6D68C7
:1017100005F46051C90A0B4D6B5C4568DD40C5603E
:10172000054D6D6805F44041890B074D6B5CC5683C
:10173000B5FBF3F5056130BD0010024000127A00E0
:1017400000093D00580000206800002010B5044644
:10175000E1B2064800F019FA00BF0448008800F022
:1017600080000028F9D0204610BD0000003801405C
:1017700010B500F001F810BD0CB5002001900090EC
:101780003348006840F480303149086000BF304879
:10179000006800F4003000900198401C019000980F
:1017A00018B90198B0F5A06FF1D12948006800F48C
:1017B000003010B10120009001E00020009000985E
:1017C000012843D12348006840F0100021490860F7
:1017D0000846006820F0030008600846006840F0F2
:1017E000020008601A484068194948600846406885
:1017F00048600846406840F4806048600846406899
:1018000020F47C1048600846406840F4E8104860C6
:101810000846006840F08070086000BF0C4800680F
:1018200000F000700028F9D00948406820F003005B
:10183000074948600846406840F00200486000BF21
:101840000348406800F00C000828F9D10CBD0000E6
:10185000001002400020024010B5FEF7C7FC04460D
:1018600006480078401C054908702046FEF7C2FC77
:10187000FFF742FBFEF786FF10BD0000310000209D
:1018800010B51348006840F001001149086008468F
:101890004068104908400E494860084600680E49F3
:1018A00008400B4908600846006820F48020086062
:1018B0000846406820F4FE0048604FF41F0088602E
:1018C000FFF756FF4FF000600449086010BD0000AC
:1018D000001002400000FFF8FFFFF6FE08ED00E0F8
:1018E00017E004210B48FEF7E0FE0B48006883B2C6
:1018F000002211461046FFF7B7FA04210548FEF70B
:10190000D2FE0548006883B2002211461046FFF758
:10191000ABFAE6E7000801400000002008B509E046
:101920006A460021044B1868FEF7A0FF014603A099
:10193000FEF7D2FCF4E70000040000204D6573734D
:101940006167652069732025730D0A0030B58DB07D
:10195000FEF74CFC054614480078401C12490870FC
:101960002846FEF747FC40F22551104800F04DF89C
:1019700050B10E4800F004F9C1B20D480468601C73
:101980000B4A10600DF8041040F22771074800F070
:101990003CF828B1002240F22771044800F05FF8BB
:1019A000FEF7F0FE0DB030BD3100002000380140E0
:1019B000100000207FB505460C4600940020ADF8CD
:1019C0000400ADF80600ADF80800ADF80C000C20DE
:1019D000ADF80A006946284600F066F8012240F298
:1019E0002551284600F03BF80121284600F001F877
:1019F0007FBD21B1828942F40052828104E0828954
:101A00004DF6FF731A408281704770B5024600247C
:101A100000230025002040F66A16B14200D100BF25
:101A2000C1F3421501F01F03012606FA03F3012D4D
:101A300002D19689334006E0022D02D1168A334046
:101A400001E0968A33400C12012606FA04F4168847
:101A5000344013B10CB1012000E0002070BDF0B59E
:101A60000346002400260025002040F66A17B942EC
:101A700000D100BF1846C1F3421401F01F06012730
:101A800007FA06F5012C01D10C3004E0022C01D13B
:101A9000103000E014301AB107682F43076002E0ED
:101AA0000768AF430760F0BD2DE9F04786B00546F3
:101AB0000E460024A24600BFA1460027B08900B10F
:101AC00000BF2F462C8A4CF6FF700440F088044378
:101AD0002C82AC894EF6F3100440B088318908435B
:101AE000718908430443AC81AC8A4FF6FF4004403F
:101AF000B0890443AC8201A8FFF7BEFD1F488742AE
:101B000002D1DDF810A001E0DDF80CA0A88900F4F6
:101B1000004040B10AEBCA0000EB0A1031684900EE
:101B2000B0FBF1F807E00AEBCA0000EB0A103168DD
:101B30008900B0FBF1F86420B8FBF0F00401200943
:101B4000642101FB1089A88900F4004040B13220D3
:101B500000EBC900B0FBF1F000F00700044308E01F
:101B6000322000EB09106421B0FBF1F000F00F000F
:101B700004432C8106B0BDE8F08700000038014026
:101B800001468888C0F308007047C1F308028280CC
:101B9000704700BFFEE701464FF0FF30704770B559
:101BA00004460D462046FFF7D1FD70BD10B5FEF787
:101BB00011FBFEF7D1FDFFF763FEFEF7B3FCFEF766
:101BC00076FD4FF4E1310A48FFF7F4FE642009493D
:101BD00008600223084A00210848FEF71DFF04465A
:101BE0000020FFF77BF9FEF7C7FE204610BD00007E
:101BF00000380140000000206802002005050008B0
:101C000000000100020001000300010002000100C9
:101C100004000100020001000300010002000100B5
:101C200005000100020001000300010002000100A4
:101C30000400010002000100030001000200010095
:101C40000600010002000100030001000200010083
:101C50000400010002000100030001000200010075
:101C60000500010002000100030001000200010064
:101C70000400010002000100030001000200010055
:101C80000700010002000100030001000200010042
:101C90000400010002000100030001000200010035
:101CA0000500010002000100030001000200010024
:101CB0000400010002000100030001000200010015
:101CC0000600010002000100030001000200010003
:101CD00004000100020001000300010002000100F5
:101CE00005000100020001000300010002000100E4
:101CF00004000100020001000300010002000100D5
:101D0000201D0008000000206C0000006C0100088D
:101D10008C1D00086C000020FC18000088010008E1
:101D200000000000000000000000000000000000B3
:101D300000000000000000000000000000000000A3
:101D40000000000000000000000000000000000093
:101D50000000000000000000000000000000000083
:101D60000000000000000000000000000000000073
:101D70000000000000000000000000000102030459
:0C1D80000102030406070809020406081B
:0400000508000131BD
:00000001FF
