:020000040800F2
:10000000701900208D020008950200089702000870
:10001000990200089B0200089D02000800000000F1
:100020000000000000000000000000009F02000827
:10003000A10200080000000027020008D9160008ED
:10004000A7020008A7020008A7020008A7020008EC
:10005000A7020008A7020008A7020008A7020008DC
:10006000A7020008A7020008A7020008A7020008CC
:10007000A7020008A7020008A7020008A7020008BC
:10008000A7020008A7020008A7020008A7020008AC
:10009000A7020008A7020008A7020008A70200089C
:1000A000A7020008A7020008A7020008A70200088C
:1000B000A7020008A7020008A7020008A70200087C
:1000C000A7020008A7020008A7020008A70200086C
:1000D000A702000899170008A7020008A702000855
:1000E000A7020008A7020008A7020008A70200084C
:1000F000A7020008A7020008A7020008A70200083C
:10010000A7020008A7020008A7020008A70200082B
:10011000A7020008A7020008A7020008A70200081B
:10012000A7020008A7020008A7020008A70200080B
:1001300000F002F800F03AF80AA090E8000C8244BF
:100140008344AAF10107DA4501D100F02FF8AFF29C
:10015000090EBAE80F0013F0010F18BFFB1A43F0A5
:1001600001031847D4190000F4190000103A24BF05
:1001700078C878C1FAD8520724BF30C830C144BF0C
:1001800004680C607047000000230024002500264E
:10019000103A28BF78C1FBD8520728BF30C148BFEA
:1001A0000B6070471FB51FBD10B510BD00F092F871
:1001B0001146FFF7F7FF01F011FC00F0B0F803B4AF
:1001C000FFF7F2FF03BC01F006FC000072B67047B7
:1001D00062B67047EFF3108072B6704780F31088F4
:1001E00070470000EFF3108072B6704780F31088FC
:1001F000704724484FF0FF010170002080F3098808
:100200001D480121017020484FF08051016062B605
:10021000FEE71D484FF08051016070471A484FF0CB
:10022000805101607047EFF3098028B1203880E8E1
:10023000F00F12490968086000B50A4880475DF868
:1002400004EB0B480B490A7802700C480C490A6809
:100250000260106890E8F00F203080F309884EF0BB
:10026000040E7047950C0008290600083500002090
:1002700037000020380000203E000020440000200D
:100280004C00002022ED00E004ED00E0094880472A
:1002900009480047FEE7FEE7FEE7FEE7FEE7FEE768
:1002A000FEE7FEE7FEE7FEE704480549054A064B80
:1002B000704700000117000831010008701300208A
:1002C00070190020701500207015002070477047CD
:1002D00070477047754600F029F8AE46050069463C
:1002E000534620F00700854618B020B5FFF7DCFF25
:1002F000BDE820404FF000064FF000074FF0000827
:100300004FF0000B21F00701AC46ACE8C009ACE8A7
:10031000C009ACE8C009ACE8C0098D467047044686
:10032000AFF300802046FFF74AFF00000048704707
:100330000C1300207047000000B585B0002000F0CD
:10034000BBF911490860032000214FF480720F4B64
:10035000CDE90132CDE90310042003460C4A009098
:100360000C4800F0FDFA0320002180220A4BCDE961
:100370000132CDE9031007200346084A00900848DF
:1003800000F0EEFA05B000BD080000207004002067
:100390006C08002065170008700200206C04002023
:1003A000611700087047704700F070FD00F05AFABE
:1003B000FFF7C2FF05E000230A221946184600F0A5
:1003C000A5FCF8E77047704708B50121042001F04B
:1003D00095F80121880301F091F80121084601F008
:1003E0008DF80420ADF8000010208DF803000320E4
:1003F0008DF8020069460E4800F01CF84FF480604A
:10040000ADF8000004208DF803006946084800F0AC
:1004100011F84FF40070ADF8000018208DF80300BB
:1004200003208DF802006946014800F003F808BD7A
:10043000000801402DE9F041024600250026002079
:1004400000230024002791F803C00CF00F0591F859
:1004500003C00CF0100CBCF1000F03D091F802C0E7
:100460004CEA050591F800C0BCF1000F31D01468CA
:1004700000202BE04FF0010C0CFA00F3B1F800C0A3
:100480000CEA03069E4220D183004FF00F0C0CFAB9
:1004900003F7BC4305FA03FC4CEA040491F803C0DB
:1004A000BCF1280F06D14FF0010C0CFA00FCC2F889
:1004B00014C00AE091F803C0BCF1480F05D14FF019
:1004C000010C0CFA00FCC2F810C0401C0828D1D363
:1004D0001460B1F800C0BCF1FF0F34DD5468002097
:1004E0002EE000F1080C4FF0010808FA0CF3B1F807
:1004F00000C00CEA03069E4221D183004FF00F0C8E
:100500000CFA03F7BC4305FA03FC4CEA040491F827
:1005100003C0BCF1280F05D100F1080C08FA0CF853
:10052000C2F8148091F803C0BCF1480F07D100F164
:10053000080C4FF0010808FA0CF8C2F81080401CB3
:100540000828CED35460BDE8F08141617047016155
:10055000704708B500214FF0006000F045F82520F5
:100560008DF8000000208DF8020001208DF80300B6
:10057000684600F001F808BD70B5002100230F2285
:10058000C47804B3154C246804F4E064C4F5E06452
:10059000210AC1F10403CA40447804FA03F18478C3
:1005A0001440214309010E4C0678A155047804F04B
:1005B0001F050124AC4005786D11AD0005F1E02563
:1005C000C5F8004109E0047804F01F050124AC409F
:1005D000044D0678761145F8264070BD0CED00E01C
:1005E00000E400E080E100E0024A0A400243024BDE
:1005F0001A60704780FFFF1F08ED00E010B500F0A3
:1006000011F800F025FD00F04DFD00F06FFD00F049
:10061000F7FC00F0CFFC00F09DFD00F0C3FD00F002
:1006200002F810BD7047704710B500241A480078D2
:10063000012830D1FFF7D6FD04461848007800287D
:1006400004DD16480078401E1449087013480078ED
:10065000F0B913480078D8B900F010FE11480078BE
:1006600011490978884213D010480E49097850F88A
:1006700021000F49086008460068806B401C09682B
:1006800088630C480068401C0A490860FFF7C6FDF3
:100690002046FFF7ABFD10BD3E00002035000020D6
:1006A0003600002038000020370000203C0E0020DB
:1006B0004C0000201C00002070B5054600261248A2
:1006C0000078002801DD002070BDFFF78BFD064695
:1006D0000E480468006820B10C48006840680B4967
:1006E00008603046FFF782FD5CB1012020700020D9
:1006F000208165603F20E07300212174204600F0D6
:100700004BFC2046E0E700003500002020000020E0
:100710002DE9F04105460F4614464FF000082878B1
:10072000012804D0012020700020BDE8F081384865
:100730000078002803DD022020700020F5E735480E
:100740000078002803DD0D2020700020EDE7FFF782
:1007500049FD80466E6846B1002068604046FFF75C
:1007600045FD002020703046DFE72B48006890F8F8
:10077000300040F002002849096881F8300000206C
:100780002549096881F8310023480068C785284653
:1007900000F0C4FB4046FFF729FD00F035FDFFF7F0
:1007A00021FD80461C48006890F8310020B10128E6
:1007B0000DD002280AD105E017480068466A0020DB
:1007C00020700DE000260E20207009E000BF2946B1
:1007D0001148006800F08CFB00260A20207000BF42
:1007E00000BF00200C49096881F830000A490968F7
:1007F00081F8310008490968C86107490968086239
:100800000549096848624046FFF7F0FC30468CE72E
:1008100035000020360000204400002010B50B48B1
:10082000007890B900F02AFD09480078094908705D
:1008300009480749097850F8210008490860084626
:10084000006807490860FFF7D4FC10BD3E00002097
:1008500038000020370000203C0E00204C00002013
:100860004400002010B50024022000F017FAFFF722
:10087000B9FC044600200B4908602046FFF7B6FC8F
:100880000A2000F00BFAFFF7ADFC044605480068AB
:10089000054908600120054908702046FFF7A6FCBD
:1008A00010BD0000400000202C000020340000207B
:1008B00010B504462046FFF73DFD10BD2DE9FE4F63
:1008C00006460F4690461C464FF00009FFF78AFC8B
:1008D000814620480078002805DD4846FFF786FC61
:1008E0003C20BDE8FE8F1C4850F8240060BB01206E
:1008F000194941F824004846FFF778FC0023424696
:100900003946304600F024F98246002000900190DC
:100910000346024651460290204600F0DDFC0546A3
:1009200035B90E48007801280CD100F06DFC09E0C3
:10093000FFF758FC81460020074941F8240048464B
:10094000FFF754FC2846CCE74846FFF74FFC282029
:10095000C7E70000350000203C0E00203E000020CC
:100960002DE9F04F85B081468A4693461C46DDE965
:100970000F78129D00200390FFF734FC039023486A
:100980000078002806DD0398FFF730FC3C2005B016
:10099000BDE8F08F1E4850F8240088BB01201C4998
:1009A00041F824000398FFF721FC2A4641463846C7
:1009B00000F096FD2B465A465146484600F0C8F8CE
:1009C00004901198CDE9008002953A4620460E9B8E
:1009D000049900F081FC064636B90E4800780128DB
:1009E0000CD100F011FC09E0FFF7FCFB03900020A4
:1009F000074941F824000398FFF7F8FB3046C6E7A3
:100A0000FFE70398FFF7F2FB2820C0E7350000203E
:100A10003C0E00203E00002010B504462046FFF7A3
:100A2000C1FC10BD10B5FFF7BEFC10BD2DE9F047AD
:100A30000646884614464FF000091D4800780028F5
:100A400003DD12202070BDE8F087FFF7CBFB814665
:100A5000FF2E03D11748006890F83260164850F80E
:100A600026502DB94846FFF7C1FB43202070EAE726
:100A7000012D05D14846FFF7B9FB43202070E2E77E
:100A8000404600F01FFC07460F2F05DD4846FFF7E4
:100A9000ADFB41202070D6E7414605F14C0000F047
:100AA00003FC4846FFF7A2FB0020207000BFCAE706
:100AB00035000020440000203C0E002010B5FFF758
:100AC00081FC10BD2DE9F04707460D464FF0000AA6
:100AD000002028606860FFF785FB8246FF2F03D166
:100AE0001948006890F83270184850F827402CB91F
:100AF0005046FFF77BFB4320BDE8F087012C04D173
:100B00005046FFF773FB4320F6E7207C00F001001E
:100B100020B95046FFF76AFB4520EDE70026D4F8E0
:100B20000C90D4F808805046FFF760FB00E0761C7C
:100B300058F8041B0029FAD0B0002860A9EB060081
:100B4000800068600020D7E7440000203C0E0020B1
:100B500070B5044610464FF080750560051F2846A5
:100B60002C606FF00106051F28462E604FF01236EC
:100B7000051F28462E604FF00336051F28462E60BD
:100B80004FF00236051F28462E607610051F2846B6
:100B90002E60051F284629604FF01136051F284694
:100BA0002E604FF01036051F28462E604FF0093694
:100BB000051F28462E604FF00836051F28462E6078
:100BC0004FF00736051F28462E604FF00636051FEA
:100BD00028462E604FF00536051F28462E604FF040
:100BE0000436051F28462E6070BD00002DE9F04137
:100BF00005464FF00008FFF7F5FA8046FF2D05D1B6
:100C00002048006890F83250012608E01D4800682E
:100C100090F83200A84201D1012600E000261A48CF
:100C200050F825402CB94046FFF7E0FA4820BDE8CF
:100C3000F081012C04D14046FFF7D8FA4320F6E7B3
:100C400094F834701148C05D94F8351088430F490A
:100C5000C8550846C05D30B994F836100C48007885
:100C600088430B49087094F8300040F0080084F87D
:100C700030004046FFF7BAFA012E01D100F0C4FA65
:100C80000020D4E7440000203C0E00203A00002061
:100C90003900002010B5FFF796FB10BD70B5054672
:100CA000002616480078002800DD70BD002D23DDE9
:100CB000FFF798FA06461248006890F83440114849
:100CC000005D0F49096891F8351088430D490855B2
:100CD0000846005D40B90A48006890F836100A4896
:100CE000007888430849087005480068C585304683
:100CF000FFF77CFA00F088FA00BFD6E73500002045
:100D0000440000203A000020390000202DE9F0477F
:100D100006460F469046994618480078002802DD9E
:100D20005520BDE8F08709F10500642148434FF4E0
:100D30007A71B0FBF1F14FF461607043C7EB0712B9
:100D400000EB8200404400EBC00202EB001001EB1C
:100D50008004250CA4B22046FFF7A0FF09E04FF461
:100D60000040FFF79BFF4FF40040FFF797FF681E1E
:100D700085B2002DF3DC0020D3E700003500002011
:100D800070B504460025FFF72DFA054602480460B9
:100D90002846FFF72BFA70BD5800002070B50026DA
:100DA00000F072F8FFF71EFA064631480068401C52
:100DB0002F4908603046FFF719FA2E4800780128BD
:100DC00053D12D48007820B1012804D0022809D140
:100DD00003E001250BE0002509E00125012026495B
:100DE000087004E0012500202349087000BF00BFFF
:100DF00005B970BD2148046833E0FFF7F3F90646F2
:100E0000E08D50B3E08D401E80B2E08528BB94F8A1
:100E1000300000F0370040B114F8300F20F03700F8
:100E2000207001206070303C02E0002084F8310026
:100E300094F8300000F0080078B93434A0781049F4
:100E4000097808430E49087020780E49085C6178DB
:100E5000084314F834190B4A505464693046FFF7BC
:100E6000C5F994F832001F28C7D100BFC1E70000C0
:100E7000580000203E0000205400002050000020B8
:100E8000390000203A0000207047000070B586B09D
:100E900001A800F043FB64210298B0FBF1F4214665
:100EA000481EB0F1807F00D31BE0481E4FF0E022C7
:100EB000506150170F22002807DA13071E0E0A4B45
:100EC00000F00F052D1F5E5503E013071D0E074BA5
:100ED0001D5400BF00204FF0E022906107201061F8
:100EE00000BF06B070BD000018ED00E000E400E0B7
:100EF00010B590F8342001F10B039B5C90F835405D
:100F0000A34301F10B04A35423469B5C23B98B7AC2
:100F100090F83640A3438B7210BD000010B51B4AF9
:100F20001268D061194A126892F8343000F10B024D
:100F3000D25C164B1B6893F835301A43134B1B6871
:100F400093F8344000F10B031A55827A0F4B1B685B
:100F500093F836301A4382720C4A126892F83410B1
:100F60000B4A525C094B1B6893F835309A43084B87
:100F70005A541A46525C42B9044A126892F8363002
:100F8000044A12789A43034B1A7010BD44000020A3
:100F90003A000020390000200023837200F10B0189
:100FA000002204E0002301F8013B531CDAB2042ABA
:100FB000F8DB704770B58C210F4800F01BF90E4C20
:100FC00004F11C0600250AE00020207066603F2026
:100FD000A0720021E1721C341C36681C85B2042DFD
:100FE000F2DB0020207060603F20A0720021E172DF
:100FF00001480249086070BDB009002024000020AB
:1010000030B54FF4A071104800F0F4F80E4B03F126
:10101000200500240AE0002018705D603F20D8738E
:101020000021197420332035601C84B2092CF2DBB6
:101030000020187058603F20D873002119740248AE
:101040000249086030BD0000700800202000002028
:1010500000200A4908600A4908700A4908700A49CC
:1010600008700A4908700A4908600A4908600A4974
:1010700008600A4908600A49087070475800002053
:1010800035000020360000203F0000203E000020F8
:101090001C00002040000020300000202C00002018
:1010A0003400002000220B4B1A700B49002004E092
:1010B000002201F8012B421CD0B20428F8DB0022E8
:1010C000064B1A70064B1A70064B1A60064B1A60D4
:1010D00070470000390000203A000020370000204F
:1010E000380000204C0000204400002030B54FF4B0
:1010F0008A61144800F07EF88021134800F07AF8E5
:10110000104B03F15C0500240AE05D613F2083F889
:101110004C0000214D20C1545C335C35601CC4B2CE
:101120000B2CF2D3002058613F2083F84C000021A3
:101130004D20C15400200549086002480449086058
:1011400030BD0000BC0E00203C0E002050000020EE
:101150004800002000B587B00320002180220A4B00
:10116000CDE90132CDE903104FF6FF701F23074A86
:1011700000900748FFF7F4FB06AA06A11F20FFF71F
:1011800055FC07B000BD00003C0C0020380E0020CC
:10119000F913000875432F4F532D49492049646CBA
:1011A0006500000000B587B00320002180220A4BB3
:1011B000CDE90132CDE903104FF6FE701E23074A38
:1011C00000900748FFF7CCFB06AA06A11E20FFF7F8
:1011D0002DFC07B000BD00003C0A0020380C0020A8
:1011E0001D14000875432F4F532D49492053746136
:1011F0007400000004E0002200F8012B4A1E91B2A6
:101200000029F8DC7047000010B50024FEF7EAFF63
:10121000044613480078F0B912480078D8B900F0B5
:101220002DF81148007811490978884213D01048E8
:101230000D49097850F821000E49086008460068F9
:10124000806B401C096888630B480068401C0A4991
:101250000860FEF7DEFF2046FEF7C8FF10BD000065
:101260003500002036000020380000203700002024
:101270003C0E00204C0000201C0000200649074ABC
:101280001278885C0649095C034A515C01EBC00195
:10129000044A117070470000381A00083900002015
:1012A0003A000020380000200246002005E011F836
:1012B000013B02F8013B431CD8B20B78002BF6D15E
:1012C000137070470146002002E0491C421CD0B256
:1012D0000A78002AF9D170472DE9F84F05460E46E5
:1012E00017469846DDE90BABDDF82890002000900A
:1012F000FEF778FF00903A480468002C6BD0183451
:1013000054F8040C364908600098FEF76FFF44F863
:10131000186CA576002020766076E08244F814AC44
:1013200044F80C9C44F8107C24F808BC24F8068C83
:10133000E077E810207705F00700E076217F0120B4
:101340008840A077E17E01208840607700206060BF
:10135000A0602061E0602062A0626062E0622063C1
:101360003F2084F83400183C00214D2001552046D0
:10137000FFF79EFA2046FFF74FFBFEF733FF009082
:10138000184840F825401848006860610020A061B6
:101390001548006810B11448006884611248046060
:1013A0003434A0781149097808431049087020782E
:1013B0000F49085C6178084314F834190C4A5054FA
:1013C0000C480078401C0B4908700098FEF70EFF8F
:1013D0000020BDE8F88F0098FEF708FF4220F8E7EC
:1013E000480000203C0E0020500000203900002062
:1013F0003A0000203F000020002400BFFEF7F2FE6C
:10140000044605480068401C034908602046FEF772
:10141000EDFEFFF707FBF1E740000020002402E0AB
:101420001420FFF73BFC1A4800780028F8D0194830
:1014300000686421B0FBF1F01649086008460068B6
:1014400028B9002014490870FF20FFF7CFFB00BF28
:10145000FEF7C8FE044611480068114908600020E4
:101460000E4908602046FEF7C1FE0D480068094994
:101470000968B0FBF1F0C0F1640007490870FFF79C
:101480001DFB00F00FF80A20FFF708FCE0E7000062
:10149000340000202C000020280000204000002004
:1014A000300000207CB5002514E069462846FFF78F
:1014B00009FB064666B9094850F8254044B1012C9D
:1014C00006D0D4E9020100EB810060640198A064B9
:1014D000681CC5B21F2DE8DD7CBD00003C0E00205D
:1014E00002F0010343B102F002032BB102E0491EF6
:1014F000002308C00029FAD17047000029B1064A2C
:1015000092690243044B9A6104E0034A9269824360
:10151000014B9A61704700000010024030B5002175
:101520000022002400232D4D6D6805F00C0121B12F
:10153000042905D0082923D105E0294D056022E0C2
:10154000274D05601FE0254D6D6805F47012234D91
:101550006D6805F48034022505EB92421CB9214DDB
:10156000554305600BE01D4D6D6805F400351DB158
:101570001C4D5543056002E0194D5543056002E0DE
:10158000174D056000BF00BF144D6D6805F0F001F8
:101590000909154D6B5C0568DD4045600F4D6D68B0
:1015A00005F4E061090A104D6B5C4568DD4085601B
:1015B0000A4D6D6805F46051C90A0B4D6B5C4568B6
:1015C000DD40C560054D6D6805F44041890B074D50
:1015D0006B5CC568B5FBF3F5056130BD00100240DA
:1015E00000127A0000093D005C0000206C00002021
:1015F00010B500F001F810BD0CB50020019000906E
:101600003348006840F480303149086000BF3048FA
:10161000006800F4003000900198401C0190009890
:1016200018B90198B0F5A06FF1D12948006800F40D
:10163000003010B10120009001E0002000900098DF
:10164000012843D12348006840F010002149086078
:101650000846006820F0030008600846006840F073
:10166000020008601A484068194948600846406806
:1016700048600846406840F480604860084640681A
:1016800020F47C1048600846406840F4E810486048
:101690000846006840F08070086000BF0C48006891
:1016A00000F000700028F9D00948406820F00300DD
:1016B000074948600846406840F00200486000BFA3
:1016C0000348406800F00C000828F9D10CBD000068
:1016D000001002400020024010B5FEF783FD0446D2
:1016E00006480078401C054908702046FEF77EFD3C
:1016F000FFF754FBFEF798FF10BD000035000020F7
:1017000010B51348006840F0010011490860084610
:101710004068104908400E494860084600680E4974
:1017200008400B4908600846006820F480200860E3
:101730000846406820F4FE0048604FF41F008860AF
:10174000FFF756FF4FF000600449086010BD00002D
:10175000001002400000FFF8FFFFF6FE08ED00E079
:1017600000BFFEE708B512E06A460021084800689D
:10177000FEF7CEFF044620784F2804D10421054807
:10178000FEF7E5FE03E004210248FEF7DEFEEBE78C
:10179000080000200008014030B58DB0FEF722FDA2
:1017A000054614480078401C124908702846FEF788
:1017B0001DFD40F22551104800F04DF850B10E4883
:1017C00000F004F9C1B20D480468601C0B4A1060B7
:1017D0000DF8041040F22771074800F03CF828B1DA
:1017E000002240F22771044800F05FF8FEF71CFF6A
:1017F0000DB030BD3500002000380140140000203D
:101800007FB505460C4600940020ADF80400ADF805
:101810000600ADF80800ADF80C000C20ADF80A0089
:101820006946284600F066F8012240F22551284614
:1018300000F03BF80121284600F001F87FBD21B1FE
:10184000828942F40052828104E082894DF6FF735E
:101850001A408281704770B502460024002300259B
:10186000002040F66A16B14200D100BFC1F3421514
:1018700001F01F03012606FA03F3012D02D1968918
:10188000334006E0022D02D1168A334001E0968AE9
:1018900033400C12012606FA04F41688344013B1C2
:1018A0000CB1012000E0002070BDF0B5034600241B
:1018B00000260025002040F66A17B94200D100BF7B
:1018C0001846C1F3421401F01F06012707FA06F576
:1018D000012C01D10C3004E0022C01D1103000E0C9
:1018E00014301AB107682F43076002E00768AF435E
:1018F0000760F0BD2DE9F04786B005460E4600248E
:10190000A24600BFA1460027B08900B100BF2F4604
:101910002C8A4CF6FF700440F08804432C82AC897A
:101920004EF6F3100440B0883189084371890843AA
:101930000443AC81AC8A4FF6FF400440B0890443B5
:10194000AC8201A8FFF7EAFD1F48874202D1DDF80B
:1019500010A001E0DDF80CA0A88900F4004040B11F
:101960000AEBCA0000EB0A1031684900B0FBF1F83D
:1019700007E00AEBCA0000EB0A1031688900B0FBEF
:10198000F1F86420B8FBF0F004012009642101FBA8
:101990001089A88900F4004040B1322000EBC90052
:1019A000B0FBF1F000F00700044308E0322000EB48
:1019B00009106421B0FBF1F000F00F0004432C810A
:1019C00006B0BDE8F0870000003801400146888875
:1019D000C0F30800704700BFFEE7000010B5FEF737
:1019E000F5FBFEF70BFEFFF78BFEFEF7EDFCFEF7B7
:1019F000B0FD4FF4E1310B48FFF702FF00200A4928
:101A000008706420094908600223094A0021094836
:101A1000FEF754FF04460020FFF7B2F9FEF7FEFE82
:101A2000204610BD003801400400002000000020C6
:101A30006C020020A9030008000001000200010060
:101A40000300010002000100040001000200010087
:101A50000300010002000100050001000200010076
:101A60000300010002000100040001000200010067
:101A70000300010002000100060001000200010055
:101A80000300010002000100040001000200010047
:101A90000300010002000100050001000200010036
:101AA0000300010002000100040001000200010027
:101AB0000300010002000100070001000200010014
:101AC0000300010002000100040001000200010007
:101AD00003000100020001000500010002000100F6
:101AE00003000100020001000400010002000100E7
:101AF00003000100020001000600010002000100D5
:101B000003000100020001000400010002000100C6
:101B100003000100020001000500010002000100B5
:101B200003000100020001000400010002000100A6
:101B30000300010002000100581B00080000002003
:101B4000700000006C010008C81B00087000002035
:101B500000190000880100080000000000000000DB
:101B60000000000000000000000000000000000075
:101B70000000000000000000000000000000000065
:101B80000000000000000000000000000000000055
:101B90000000000000000000000000000000000045
:101BA0000000000000000000000000000000000035
:101BB0000000000000000000010203040102030411
:081BC0000607080902040608EB
:0400000508000131BD
:00000001FF
