:020000040800F2
:1000000068020020890100088D0100088F010008A6
:10001000910100089301000895010008000000000C
:100020000000000000000000000000009701000830
:1000300099010008000000009B0100089D010008D4
:100040009F0100089F0100089F0100089F01000810
:100050009F0100089F0100089F0100089F01000800
:100060009F0100089F0100089F0100089F010008F0
:100070009F0100089F0100089F0100089F010008E0
:100080009F0100089F0100089F0100089F010008D0
:100090009F0100089F0100089F0100089F010008C0
:1000A0009F0100089F0100089F0100089F010008B0
:1000B0009F0100089F0100089F0100089F010008A0
:1000C0009F0100089F0100089F0100089F01000890
:1000D0009F010008630400089F0100089F010008B9
:1000E0009F0100089F0100089F01000800F002F82E
:1000F00000F03AF80AA090E8000C82448344AAF188
:100100000107DA4501D100F02FF8AFF2090EBAE885
:100110000F0013F0010F18BFFB1A43F0010318473B
:1001200084040000A4040000103A24BF78C878C1F9
:10013000FAD8520724BF30C830C144BF04680C60ED
:10014000704700000023002400250026103A28BF35
:1001500078C1FBD8520728BF30C148BF0B60704739
:100160001FB51FBD10B510BD00F0D8F91146FFF73F
:10017000F7FF00F003F900F00AFA03B4FFF7F2FF0B
:1001800003BC00F05CF9000008480047FEE7FEE70A
:10019000FEE7FEE7FEE7FEE7FEE7FEE7FEE7FEE737
:1001A00003480449024A044B70470000ED00000870
:1001B00068000020680200206800002010B500BF21
:1001C00012205D49086000BF00BF5C485C49486080
:1001D0005C48086000BF00BF5948006800F4003068
:1001E0000028F9D000BF5648006800F000700028D1
:1001F000F9D000BF5248406800F00C000828F9D13F
:1002000000BF00BF4E48806940F004004C4988613F
:100210004D484E4908600020091D08604848806923
:1002200040F00800464988610020494908604FF0C5
:100230003330091D08604248806940F01000404991
:1002400088610020434908604FF4800048603C48C2
:10025000806940F020003A49886100203E490860EA
:10026000091D086000BF00F005F810BD3B4870474D
:100270003B4870473248806940F00100304988614E
:100280003848406820F00400364948602C488069AE
:1002900040F004002A4988612C48001D006820F4C1
:1002A0007F602A49091D08600846006840F0B000D8
:1002B00008600846006840F4806008602048806953
:1002C00040F480401E49886140F2A1102649088010
:1002D0000020091D0880091D0880081F0088091FCB
:1002E0000880002020490C3108801F48001D00882C
:1002F00040F00C001C49091D08800846008840F0A9
:1003000020000880081D0088091D0880081D00883D
:10031000091D08801548006840F020004FF0E021DA
:10032000C1F804011048001D008840F400500E4937
:10033000091D08807047000000200240028405006B
:1003400000100240820001013433333300080140C1
:10035000000C01400010014000140140001BB700D8
:1003600000366E01000001400838014004E100E061
:1003700000BF0100A0F10100FBD17047FFF71EFF95
:100380001348006820F00400114908601EE000BF17
:100390000F48006820F004000D49086000BF0DA060
:1003A00000F082F80E48FFF7E3FF00BF084800683E
:1003B00040F004000649086000BF0AA000F074F88D
:1003C0000748FFF7D5FF0AA000F06EF8DFE700004E
:1003D0000C0801404C6564206973206F6E0A0000B0
:1003E000A08601004C6564206973206F66660A0070
:1003F00053544D3332463130335A45540A000000CD
:1004000070B504460D46204600F01CF870BD70B56E
:10041000054600BF00F023F80446601C0028F9D010
:10042000204600F00FF8204670BD10B50446204667
:1004300000F008F810BD01464FF0FF30704700BFD4
:10044000FEE700000146164A118000BF1448001F55
:10045000008800F040000028F8D0002070470020FD
:10046000704708B50E48001F00880090009800F003
:10047000200038B10A48001F008820F020000849F9
:10048000091F0880009800F0800038B10448001F60
:10049000008820F080000249091F088008BD000084
:1004A00004380140704700000FB4044910B503AA96
:1004B000029800F009F810BC5DF814FB0000002061
:1004C0007047704770470000074B70B50D467B447E
:1004D00000F011F804462846FFF7ADFF10B14FF0C9
:1004E000FF3070BD204670BD2FFFFFFF01694A1C21
:1004F00002610878704700B58FB0CDE90131002165
:10050000059105497944CDE903101146684600F08C
:100510002AF80FB000BD0000E5FFFFFF754600F0B0
:100520003DF8AE4605006946534620F00700854673
:1005300018B020B5FFF734FEBDE820404FF00006AC
:100540004FF000074FF000084FF0000B21F00701BB
:10055000AC46ACE8C009ACE8C009ACE8C009ACE8FE
:10056000C0098D4670472DE9F04106460024D6E9C2
:100570000170F5688046304603E04146B847641C88
:100580003046A8470028F8D12046BDE8F08104464F
:10059000AFF300802046FFF7F0FD000000487047F1
:1005A00008000020C405000800000020080000002A
:1005B00028010008CC0500080800002060020000A7
:0C05C000440100080000000000000000E2
:04000005080000ED02
:00000001FF
