:020000040800F2
:1000000068020020390300083D0300083F03000890
:1000100041030008430300084503000800000000F6
:10002000000000000000000000000000470300087E
:1000300049030008000000004B0300084D030008BE
:100040004F0300084F0300084F0300084F03000848
:100050004F0300084F0300084F0300084F03000838
:100060004F0300084F0300084F0300084F03000828
:100070004F0300084F0300084F0300084F03000818
:100080004F0300084F0300084F0300084F03000808
:100090004F0300084F0300084F0300084F030008F8
:1000A0004F0300084F0300084F0300084F030008E8
:1000B0004F0300084F0300084F0300084F030008D8
:1000C0004F0300084F0300084F0300084F030008C8
:1000D0004F030008590400084F0300084F030008AD
:1000E0004F0300084F0300084F03000800F002F818
:1000F00000F03AF80AA090E8000C82448344AAF188
:100100000107DA4501D100F02FF8AFF2090EBAE885
:100110000F0013F0010F18BFFB1A43F0010318473B
:100120007404000094040000103A24BF78C878C119
:10013000FAD8520724BF30C830C144BF04680C60ED
:10014000704700000023002400250026103A28BF35
:1001500078C1FBD8520728BF30C148BF0B60704739
:100160001FB51FBD10B510BD00F0D2F91146FFF745
:10017000F7FF00F001F900F003FA03B4FFF7F2FF14
:1001800003BC00F059F9000010B500BF12205B4914
:10019000086000BF00BF5A485A4948605A48086082
:1001A00000BF00BF5748006810F4003FFAD000BFFE
:1001B0005448006810F0007FFAD000BF51484068F2
:1001C00000F00C000828F9D100BF00BF4D4880693D
:1001D00040F004004B4988614C484D4908600020BC
:1001E000091D08604748806940F00800454988615A
:1001F0000020484908604FF03330091D086041482D
:10020000806940F010003F49886100204249086041
:100210004FF4800048603B48806940F02000394935
:10022000886100203D490860091D086000BF00F09A
:1002300005F810BD3A4870473A4870473148806920
:1002400040F001002F4988613748406820F00400E1
:10025000354948602B48806940F00400294988618D
:100260002B48001D006820F47F602949091D0860A3
:100270000846006840F0B00008600846006840F496
:10028000806008601F48806940F480401D49886193
:1002900040F2A110254908800020091D0880091D91
:1002A0000880081F0088091F088000201F490C31A2
:1002B00008801E48001D008840F00C001B49091DE5
:1002C00008800846008840F020000880081D00884B
:1002D000091D0880081D0088091D08801448006851
:1002E00040F020004FF0E021C1F8040111480088DF
:1002F00040F400500F490880704700000020024081
:1003000002840500001002408200010134333333BF
:1003100000080140000C01400010014000140140A1
:10032000001BB70000366E01000001400838014094
:1003300004E100E00C38014008480047FEE7FEE712
:10034000FEE7FEE7FEE7FEE7FEE7FEE7FEE7FEE785
:1003500003480449024A044B70470000ED000008BE
:1003600068000020680200206800002000BF010033
:10037000A0F10100FBD17047FFF706FF13480068AA
:1003800020F00400114908601EE000BF0F4800681B
:1003900020F004000D49086000BF0DA000F07EF8B9
:1003A0000E48FFF7E3FF00BF0848006840F0040074
:1003B0000649086000BF0AA000F070F80748FFF780
:1003C000D5FF0AA000F06AF8DFE700000C08014042
:1003D0004C6564206973206F6E0A0000A0860100DE
:1003E0004C6564206973206F66660A0053544D3370
:1003F00032463130335A45540A00000070B5044685
:100400000D46204600F01AF870BD70B5054600BFD5
:1004100000F020F80446601CFAD0204600F00EF8E8
:10042000204670BD10B50446204600F007F810BD08
:1004300001464FF0FF30704700BFFEE70146154A06
:10044000118000BF1348001F008810F0400FF9D042
:10045000002070470020704708B50E48001F008834
:100460000090009810F0200F07D00A48001F008865
:1004700020F020000749091F0880009810F0800F25
:1004800007D00448001F008820F080000149091FA0
:10049000088008BD04380140704700000FB40449CB
:1004A00010B503AA029800F009F810BC5DF814FB1F
:1004B000000000207047704770470000074B70B580
:1004C0000D467B4400F011F804462846FFF7B0FFC4
:1004D00010B14FF0FF3070BD204670BD37FFFFFFF9
:1004E00001694A1C02610878704700B58FB0CDE9F8
:1004F00001310021059105497944CDE903101146E8
:10050000684600F02AF80FB000BD0000E5FFFFFFCD
:10051000754600F03BF8AE4605006946534620F0AC
:100520000700854618B020B5FFF712FFBDE8204050
:100530004FF000064FF000074FF000084FF0000B9F
:1005400021F00701AC46ACE8C009ACE8C009ACE852
:10055000C009ACE8C0098D4670472DE9F041064658
:100560000024D6E90170F568804602E04146B847AC
:10057000641C3046A8470028F8D12046BDE8F08129
:100580000446AFF300802046FFF7F7FD00487047B0
:1005900008000020B405000800000020080000004A
:1005A00028010008BC0500080800002060020000C7
:0C05B000440100080000000000000000F2
:04000005080000ED02
:00000001FF
